{
  "transactions": [
    {
      "hash": "0x28f8cb5f0cb7b170668d78ba45d4da063e6006668f60d206b6353bdf2642c295",
      "transactionType": "CALL",
      "contractName": null,
      "contractAddress": "0x2345988ec6c0196821177b90f5e919f18f5324f3",
      "function": "setVariablePoolBorrowRate(uint128)",
      "arguments": [
        "5000000000000000"
      ],
      "transaction": {
        "from": "0x023953117d262271d70dd5d8c96a8dd327a7a594",
        "to": "0x2345988ec6c0196821177b90f5e919f18f5324f3",
        "gas": "0xbfcd",
        "value": "0x0",
        "input": "0x4cbd882c0000000000000000000000000000000000000000000000000011c37937e08000",
        "nonce": "0x62",
        "chainId": "0xaa36a7"
      },
      "additionalContracts": [],
      "isFixedGasLimit": false
    }
  ],
  "receipts": [
    {
      "status": "0x1",
      "cumulativeGasUsed": "0x7278bc",
      "logs": [
        {
          "address": "0x2345988ec6c0196821177b90f5e919f18f5324f3",
          "topics": [
            "0x5dd867e3010e89c86273dfd293660a318f5751183db3eb823fccb822db1798d9",
            "0x0000000000000000000000000000000000000000000000000011c37937e08000",
            "0x0000000000000000000000000000000000000000000000000011c37937e08000"
          ],
          "data": "0x",
          "blockHash": "0x1546263ef23b6b668a10508b8badf92fbd61b7b3a23870c11cc3be0ecd01cdf9",
          "blockNumber": "0x5dda6a",
          "transactionHash": "0x28f8cb5f0cb7b170668d78ba45d4da063e6006668f60d206b6353bdf2642c295",
          "transactionIndex": "0x4c",
          "logIndex": "0x62",
          "removed": false
        }
      ],
      "logsBloom": "0x00000000000000000000000000000000000000000000000000000000000000000000000000000000000080000000000000000000000000000000000000008000000020000000000000020000000000000000000000000000000000000000000000000000000000000000000000000000000000000000000000000000000000000000000000000000000000000000002000000000000000000000000000000000000000000000000000000000000000000000000000000000000000000000000000000000000000000000000000000000000000000000000000000000000000000000000800020000000000000000000000000000200000000000000010000000",
      "type": "0x2",
      "transactionHash": "0x28f8cb5f0cb7b170668d78ba45d4da063e6006668f60d206b6353bdf2642c295",
      "transactionIndex": "0x4c",
      "blockHash": "0x1546263ef23b6b668a10508b8badf92fbd61b7b3a23870c11cc3be0ecd01cdf9",
      "blockNumber": "0x5dda6a",
      "gasUsed": "0x8add",
      "effectiveGasPrice": "0x951aa5",
      "from": "0x023953117d262271d70dd5d8c96a8dd327a7a594",
      "to": "0x2345988ec6c0196821177b90f5e919f18f5324f3",
      "contractAddress": null
    }
  ],
  "libraries": [],
  "pending": [],
  "returns": {},
  "timestamp": 1718925179,
  "chain": 11155111,
  "commit": "25f7ab5"
}