{
  "transactions": [
    {
      "hash": "0xf97db51bff967a6b7e8b510094496c567602eedc2a192e15ee4a825a958a73b3",
      "transactionType": "CALL",
      "contractName": null,
      "contractAddress": "0x2345988ec6c0196821177b90f5e919f18f5324f3",
      "function": "setVariablePoolBorrowRate(uint128)",
      "arguments": [
        "5000000000000000"
      ],
      "transaction": {
        "from": "0x023953117d262271d70dd5d8c96a8dd327a7a594",
        "to": "0x2345988ec6c0196821177b90f5e919f18f5324f3",
        "gas": "0xbfcd",
        "value": "0x0",
        "input": "0x4cbd882c0000000000000000000000000000000000000000000000000011c37937e08000",
        "nonce": "0x63",
        "chainId": "0xaa36a7"
      },
      "additionalContracts": [],
      "isFixedGasLimit": false
    }
  ],
  "receipts": [
    {
      "status": "0x1",
      "cumulativeGasUsed": "0x9f408c",
      "logs": [
        {
          "address": "0x2345988ec6c0196821177b90f5e919f18f5324f3",
          "topics": [
            "0x5dd867e3010e89c86273dfd293660a318f5751183db3eb823fccb822db1798d9",
            "0x0000000000000000000000000000000000000000000000000011c37937e08000",
            "0x0000000000000000000000000000000000000000000000000011c37937e08000"
          ],
          "data": "0x",
          "blockHash": "0x3269a11f4e33d068515822d289f0ef83ef1e5537971d89c5644b4dd4d934e1dc",
          "blockNumber": "0x5dda6e",
          "transactionHash": "0xf97db51bff967a6b7e8b510094496c567602eedc2a192e15ee4a825a958a73b3",
          "transactionIndex": "0x50",
          "logIndex": "0x8a",
          "removed": false
        }
      ],
      "logsBloom": "0x00000000000000000000000000000000000000000000000000000000000000000000000000000000000080000000000000000000000000000000000000008000000020000000000000020000000000000000000000000000000000000000000000000000000000000000000000000000000000000000000000000000000000000000000000000000000000000000002000000000000000000000000000000000000000000000000000000000000000000000000000000000000000000000000000000000000000000000000000000000000000000000000000000000000000000000000800020000000000000000000000000000200000000000000010000000",
      "type": "0x2",
      "transactionHash": "0xf97db51bff967a6b7e8b510094496c567602eedc2a192e15ee4a825a958a73b3",
      "transactionIndex": "0x50",
      "blockHash": "0x3269a11f4e33d068515822d289f0ef83ef1e5537971d89c5644b4dd4d934e1dc",
      "blockNumber": "0x5dda6e",
      "gasUsed": "0x8add",
      "effectiveGasPrice": "0x9c5587",
      "from": "0x023953117d262271d70dd5d8c96a8dd327a7a594",
      "to": "0x2345988ec6c0196821177b90f5e919f18f5324f3",
      "contractAddress": null
    }
  ],
  "libraries": [],
  "pending": [],
  "returns": {},
  "timestamp": 1718925232,
  "chain": 11155111,
  "commit": "25f7ab5"
}