{
  "transactions": [
    {
      "hash": "0xfa577105639997435efd91d0f6184814fc0b22cf414f0c89d4c0362f7fdb1844",
      "transactionType": "CALL",
      "contractName": null,
      "contractAddress": "0x2345988ec6c0196821177b90f5e919f18f5324f3",
      "function": "setVariablePoolBorrowRate(uint128)",
      "arguments": [
        "70000000000000000"
      ],
      "transaction": {
        "from": "0x023953117d262271d70dd5d8c96a8dd327a7a594",
        "to": "0x2345988ec6c0196821177b90f5e919f18f5324f3",
        "gas": "0xcb04",
        "value": "0x0",
        "input": "0x4cbd882c00000000000000000000000000000000000000000000000000f8b0a10e470000",
        "nonce": "0x5e",
        "chainId": "0xaa36a7"
      },
      "additionalContracts": [],
      "isFixedGasLimit": false
    }
  ],
  "receipts": [
    {
      "status": "0x1",
      "cumulativeGasUsed": "0x5790ed",
      "logs": [
        {
          "address": "0x2345988ec6c0196821177b90f5e919f18f5324f3",
          "topics": [
            "0x5dd867e3010e89c86273dfd293660a318f5751183db3eb823fccb822db1798d9",
            "0x00000000000000000000000000000000000000000000000000f8b0a10e470000",
            "0x00000000000000000000000000000000000000000000000000f8b0a10e470000"
          ],
          "data": "0x",
          "blockHash": "0x9ca699a355b5d10076970b1bc1f453b0d90f3bd80d2da2b73279c03382a67b00",
          "blockNumber": "0x5dd448",
          "transactionHash": "0xfa577105639997435efd91d0f6184814fc0b22cf414f0c89d4c0362f7fdb1844",
          "transactionIndex": "0x34",
          "logIndex": "0x56",
          "removed": false
        }
      ],
      "logsBloom": "0x00000000000000000000000000000000000000000000000000000000000000000000000000000000000080000000000000000000000000000000000000008000000020000000000000000000000000800000000000000000000000000000000000000000000000000000000000000000000000000000000000000000000000000000000000000000000000000000002000000000000000000000000000000000000000000000000000000000000000000000000000000000010000000000000000000000000000000000000000000000000000000000000000000000000000000000000000000000000000000000000000000000200000000010000010000000",
      "type": "0x2",
      "transactionHash": "0xfa577105639997435efd91d0f6184814fc0b22cf414f0c89d4c0362f7fdb1844",
      "transactionIndex": "0x34",
      "blockHash": "0x9ca699a355b5d10076970b1bc1f453b0d90f3bd80d2da2b73279c03382a67b00",
      "blockNumber": "0x5dd448",
      "gasUsed": "0x8ad1",
      "effectiveGasPrice": "0x3bab6029",
      "from": "0x023953117d262271d70dd5d8c96a8dd327a7a594",
      "to": "0x2345988ec6c0196821177b90f5e919f18f5324f3",
      "contractAddress": null
    }
  ],
  "libraries": [],
  "pending": [],
  "returns": {},
  "timestamp": 1718906314,
  "chain": 11155111,
  "commit": "e8ecaa0"
}