{
  "transactions": [
    {
      "hash": "0xcd921fd16a534315c6a71260aa3b5a3a6c7a601c7051fdd65df179a50f30be19",
      "transactionType": "CALL",
      "contractName": null,
      "contractAddress": "0x2345988ec6c0196821177b90f5e919f18f5324f3",
      "function": "setVariablePoolBorrowRate(uint128)",
      "arguments": [
        "5000000000000000"
      ],
      "transaction": {
        "from": "0x023953117d262271d70dd5d8c96a8dd327a7a594",
        "to": "0x2345988ec6c0196821177b90f5e919f18f5324f3",
        "gas": "0xbfcd",
        "value": "0x0",
        "input": "0x4cbd882c0000000000000000000000000000000000000000000000000011c37937e08000",
        "nonce": "0x64",
        "chainId": "0xaa36a7"
      },
      "additionalContracts": [],
      "isFixedGasLimit": false
    }
  ],
  "receipts": [
    {
      "status": "0x1",
      "cumulativeGasUsed": "0x6662b8",
      "logs": [
        {
          "address": "0x2345988ec6c0196821177b90f5e919f18f5324f3",
          "topics": [
            "0x5dd867e3010e89c86273dfd293660a318f5751183db3eb823fccb822db1798d9",
            "0x0000000000000000000000000000000000000000000000000011c37937e08000",
            "0x0000000000000000000000000000000000000000000000000011c37937e08000"
          ],
          "data": "0x",
          "blockHash": "0x87d3dfb7e393c2a5a7cccce4e4848465ee93518e382ee92b9b7251c826253775",
          "blockNumber": "0x5dda99",
          "transactionHash": "0xcd921fd16a534315c6a71260aa3b5a3a6c7a601c7051fdd65df179a50f30be19",
          "transactionIndex": "0x45",
          "logIndex": "0x56",
          "removed": false
        }
      ],
      "logsBloom": "0x00000000000000000000000000000000000000000000000000000000000000000000000000000000000080000000000000000000000000000000000000008000000020000000000000020000000000000000000000000000000000000000000000000000000000000000000000000000000000000000000000000000000000000000000000000000000000000000002000000000000000000000000000000000000000000000000000000000000000000000000000000000000000000000000000000000000000000000000000000000000000000000000000000000000000000000000800020000000000000000000000000000200000000000000010000000",
      "type": "0x2",
      "transactionHash": "0xcd921fd16a534315c6a71260aa3b5a3a6c7a601c7051fdd65df179a50f30be19",
      "transactionIndex": "0x45",
      "blockHash": "0x87d3dfb7e393c2a5a7cccce4e4848465ee93518e382ee92b9b7251c826253775",
      "blockNumber": "0x5dda99",
      "gasUsed": "0x8add",
      "effectiveGasPrice": "0xa40d67",
      "from": "0x023953117d262271d70dd5d8c96a8dd327a7a594",
      "to": "0x2345988ec6c0196821177b90f5e919f18f5324f3",
      "contractAddress": null
    }
  ],
  "libraries": [],
  "pending": [],
  "returns": {},
  "timestamp": 1718925745,
  "chain": 11155111,
  "commit": "25f7ab5"
}