{
  "transactions": [
    {
      "hash": "0xce634f32af05f9b49db6eec77bc89857e4970d77dd236bed12ed2e2148869f7b",
      "transactionType": "CALL",
      "contractName": null,
      "contractAddress": "0x2345988ec6c0196821177b90f5e919f18f5324f3",
      "function": "setVariablePoolBorrowRate(uint128)",
      "arguments": [
        "60000000000000000"
      ],
      "transaction": {
        "from": "0x023953117d262271d70dd5d8c96a8dd327a7a594",
        "to": "0x2345988ec6c0196821177b90f5e919f18f5324f3",
        "gas": "0xcb04",
        "value": "0x0",
        "input": "0x4cbd882c00000000000000000000000000000000000000000000000000d529ae9e860000",
        "nonce": "0x60",
        "chainId": "0xaa36a7"
      },
      "additionalContracts": [],
      "isFixedGasLimit": false
    }
  ],
  "receipts": [
    {
      "status": "0x1",
      "cumulativeGasUsed": "0x9d97ce",
      "logs": [
        {
          "address": "0x2345988ec6c0196821177b90f5e919f18f5324f3",
          "topics": [
            "0x5dd867e3010e89c86273dfd293660a318f5751183db3eb823fccb822db1798d9",
            "0x00000000000000000000000000000000000000000000000000d529ae9e860000",
            "0x00000000000000000000000000000000000000000000000000d529ae9e860000"
          ],
          "data": "0x",
          "blockHash": "0x5de5feb43829ed221eb9b6570f702d72b2f09b9e981f2daed6926deb7e32ea15",
          "blockNumber": "0x5dd53f",
          "transactionHash": "0xce634f32af05f9b49db6eec77bc89857e4970d77dd236bed12ed2e2148869f7b",
          "transactionIndex": "0x33",
          "logIndex": "0x51",
          "removed": false
        }
      ],
      "logsBloom": "0x00000000000000000000000000200000000000000000000000000000000000000000000000000000000080000000000000000000000000000000000000008000000020000000020000000000000000000000000000000000000000000000000000000000000100000000000000000000000000000000000000000000000000000000000000000000000000000000002000000000000000000000000000000000000000000000000000000000000000000000000000000000000000000000000000000000000000000000000000000000000000000000000000000000000000000000000000000000000000000000000000000000200000000000000010000000",
      "type": "0x2",
      "transactionHash": "0xce634f32af05f9b49db6eec77bc89857e4970d77dd236bed12ed2e2148869f7b",
      "transactionIndex": "0x33",
      "blockHash": "0x5de5feb43829ed221eb9b6570f702d72b2f09b9e981f2daed6926deb7e32ea15",
      "blockNumber": "0x5dd53f",
      "gasUsed": "0x8ad1",
      "effectiveGasPrice": "0x1fd5f140",
      "from": "0x023953117d262271d70dd5d8c96a8dd327a7a594",
      "to": "0x2345988ec6c0196821177b90f5e919f18f5324f3",
      "contractAddress": null
    }
  ],
  "libraries": [],
  "pending": [],
  "returns": {},
  "timestamp": 1718909308,
  "chain": 11155111,
  "commit": "25f7ab5"
}