{
  "transactions": [
    {
      "hash": "0xa68f1641117eb1db7c419ade2f04ba98b3af702d7a842833d8c66f3e340db4f8",
      "transactionType": "CALL",
      "contractName": null,
      "contractAddress": "0x2345988ec6c0196821177b90f5e919f18f5324f3",
      "function": "setVariablePoolBorrowRate(uint128)",
      "arguments": [
        "70000000000000000"
      ],
      "transaction": {
        "from": "0x023953117d262271d70dd5d8c96a8dd327a7a594",
        "to": "0x2345988ec6c0196821177b90f5e919f18f5324f3",
        "gas": "0x11bff",
        "value": "0x0",
        "input": "0x4cbd882c00000000000000000000000000000000000000000000000000f8b0a10e470000",
        "nonce": "0x5b",
        "chainId": "0xaa36a7"
      },
      "additionalContracts": [],
      "isFixedGasLimit": false
    }
  ],
  "receipts": [
    {
      "status": "0x1",
      "cumulativeGasUsed": "0x8bed2d",
      "logs": [
        {
          "address": "0x2345988ec6c0196821177b90f5e919f18f5324f3",
          "topics": [
            "0x5dd867e3010e89c86273dfd293660a318f5751183db3eb823fccb822db1798d9",
            "0x0000000000000000000000000000000000000000000000000000000000000000",
            "0x00000000000000000000000000000000000000000000000000f8b0a10e470000"
          ],
          "data": "0x",
          "blockHash": "0x06d971b70321f0b6580770437d10aae7052bfafde596a01dea9ca1ca43415449",
          "blockNumber": "0x5db509",
          "transactionHash": "0xa68f1641117eb1db7c419ade2f04ba98b3af702d7a842833d8c66f3e340db4f8",
          "transactionIndex": "0x42",
          "logIndex": "0x89",
          "removed": false
        }
      ],
      "logsBloom": "0x00000000000000000000000000000000000000000000000000000000000000000000000000000000000080000000000000000000000000000000000000008000000020000000000000000000000000800000000000000000000000000000000000000000020000000000000000000800000000000000000000000000000000000000000000000000000000000000002000000000000000000000000000000000000000000000000000000000000000000000000000000000010000000000000000000000000000000000000000000000000000000000000000000000000020000000000000000000000000000000000000000000200000000010000010000000",
      "type": "0x2",
      "transactionHash": "0xa68f1641117eb1db7c419ade2f04ba98b3af702d7a842833d8c66f3e340db4f8",
      "transactionIndex": "0x42",
      "blockHash": "0x06d971b70321f0b6580770437d10aae7052bfafde596a01dea9ca1ca43415449",
      "blockNumber": "0x5db509",
      "gasUsed": "0xcd9d",
      "effectiveGasPrice": "0x62af7908",
      "from": "0x023953117d262271d70dd5d8c96a8dd327a7a594",
      "to": "0x2345988ec6c0196821177b90f5e919f18f5324f3",
      "contractAddress": null
    }
  ],
  "libraries": [],
  "pending": [],
  "returns": {},
  "timestamp": 1718809836,
  "chain": 11155111,
  "commit": "e8ecaa0"
}