{
  "transactions": [
    {
      "hash": "0x295975b01f4b26b59f779de07fb35b4badff2ea72dea05a86d67b5a35b8c95bc",
      "transactionType": "CALL",
      "contractName": null,
      "contractAddress": "0x2345988ec6c0196821177b90f5e919f18f5324f3",
      "function": "setVariablePoolBorrowRate(uint128)",
      "arguments": [
        "70000000000000000"
      ],
      "transaction": {
        "from": "0x023953117d262271d70dd5d8c96a8dd327a7a594",
        "to": "0x2345988ec6c0196821177b90f5e919f18f5324f3",
        "gas": "0xcb04",
        "value": "0x0",
        "input": "0x4cbd882c00000000000000000000000000000000000000000000000000f8b0a10e470000",
        "nonce": "0x5c",
        "chainId": "0xaa36a7"
      },
      "additionalContracts": [],
      "isFixedGasLimit": false
    }
  ],
  "receipts": [
    {
      "status": "0x1",
      "cumulativeGasUsed": "0x800eb9",
      "logs": [
        {
          "address": "0x2345988ec6c0196821177b90f5e919f18f5324f3",
          "topics": [
            "0x5dd867e3010e89c86273dfd293660a318f5751183db3eb823fccb822db1798d9",
            "0x00000000000000000000000000000000000000000000000000f8b0a10e470000",
            "0x00000000000000000000000000000000000000000000000000f8b0a10e470000"
          ],
          "data": "0x",
          "blockHash": "0xf351aa852fdfd31b7acb69246b4e77b37ff41c6a7b7ef9542a16cb9ef3c442bd",
          "blockNumber": "0x5dd43d",
          "transactionHash": "0x295975b01f4b26b59f779de07fb35b4badff2ea72dea05a86d67b5a35b8c95bc",
          "transactionIndex": "0x32",
          "logIndex": "0x7f",
          "removed": false
        }
      ],
      "logsBloom": "0x00000000000000000000000000000000000000000000000000000000000000000000000000000000000080000000000000000000000000000000000000008000000020000000000000000000000000800000000000000000000000000000000000000000000000000000000000000000000000000000000000000000000000000000000000000000000000000000002000000000000000000000000000000000000000000000000000000000000000000000000000000000010000000000000000000000000000000000000000000000000000000000000000000000000000000000000000000000000000000000000000000000200000000010000010000000",
      "type": "0x2",
      "transactionHash": "0x295975b01f4b26b59f779de07fb35b4badff2ea72dea05a86d67b5a35b8c95bc",
      "transactionIndex": "0x32",
      "blockHash": "0xf351aa852fdfd31b7acb69246b4e77b37ff41c6a7b7ef9542a16cb9ef3c442bd",
      "blockNumber": "0x5dd43d",
      "gasUsed": "0x8ad1",
      "effectiveGasPrice": "0x3ba84777",
      "from": "0x023953117d262271d70dd5d8c96a8dd327a7a594",
      "to": "0x2345988ec6c0196821177b90f5e919f18f5324f3",
      "contractAddress": null
    }
  ],
  "libraries": [],
  "pending": [],
  "returns": {},
  "timestamp": 1718906180,
  "chain": 11155111,
  "commit": "e8ecaa0"
}