{
  "transactions": [
    {
      "hash": "0x67e29c368f13ede052a5ba7e868cd9b90cd38fc11dd825f62393c132fe7723f4",
      "transactionType": "CALL",
      "contractName": null,
      "contractAddress": "0x2345988ec6c0196821177b90f5e919f18f5324f3",
      "function": "setVariablePoolBorrowRate(uint128)",
      "arguments": [
        "60000000000000000"
      ],
      "transaction": {
        "from": "0x023953117d262271d70dd5d8c96a8dd327a7a594",
        "to": "0x2345988ec6c0196821177b90f5e919f18f5324f3",
        "gas": "0xcb04",
        "value": "0x0",
        "input": "0x4cbd882c00000000000000000000000000000000000000000000000000d529ae9e860000",
        "nonce": "0x5f",
        "chainId": "0xaa36a7"
      },
      "additionalContracts": [],
      "isFixedGasLimit": false
    }
  ],
  "receipts": [
    {
      "status": "0x1",
      "cumulativeGasUsed": "0x6dc29e",
      "logs": [
        {
          "address": "0x2345988ec6c0196821177b90f5e919f18f5324f3",
          "topics": [
            "0x5dd867e3010e89c86273dfd293660a318f5751183db3eb823fccb822db1798d9",
            "0x00000000000000000000000000000000000000000000000000f8b0a10e470000",
            "0x00000000000000000000000000000000000000000000000000d529ae9e860000"
          ],
          "data": "0x",
          "blockHash": "0x10edb27a6f31e2b8e26b302a56d9edcf21bd376cd44d177303a8c9e54bbe8aeb",
          "blockNumber": "0x5dd44b",
          "transactionHash": "0x67e29c368f13ede052a5ba7e868cd9b90cd38fc11dd825f62393c132fe7723f4",
          "transactionIndex": "0x32",
          "logIndex": "0x56",
          "removed": false
        }
      ],
      "logsBloom": "0x00000000000000000000000000200000000000000000000000000000000000000000000000000000000080000000000000000000000000000000000000008000000020000000020000000000000000800000000000000000000000000000000000000000000100000000000000000000000000000000000000000000000000000000000000000000000000000000002000000000000000000000000000000000000000000000000000000000000000000000000000000000010000000000000000000000000000000000000000000000000000000000000000000000000000000000000000000000000000000000000000000000200000000010000010000000",
      "type": "0x2",
      "transactionHash": "0x67e29c368f13ede052a5ba7e868cd9b90cd38fc11dd825f62393c132fe7723f4",
      "transactionIndex": "0x32",
      "blockHash": "0x10edb27a6f31e2b8e26b302a56d9edcf21bd376cd44d177303a8c9e54bbe8aeb",
      "blockNumber": "0x5dd44b",
      "gasUsed": "0x8ad1",
      "effectiveGasPrice": "0x3ba88563",
      "from": "0x023953117d262271d70dd5d8c96a8dd327a7a594",
      "to": "0x2345988ec6c0196821177b90f5e919f18f5324f3",
      "contractAddress": null
    }
  ],
  "libraries": [],
  "pending": [],
  "returns": {},
  "timestamp": 1718906347,
  "chain": 11155111,
  "commit": "e8ecaa0"
}