{
  "transactions": [
    {
      "hash": "0x7d0bc34caeb336e1ace8209d7e6d22d9a06150fa4f7d0f188841b095f694ab5c",
      "transactionType": "CALL",
      "contractName": null,
      "contractAddress": "0x2345988ec6c0196821177b90f5e919f18f5324f3",
      "function": "setVariablePoolBorrowRate(uint128)",
      "arguments": [
        "5000000000000000"
      ],
      "transaction": {
        "from": "0x023953117d262271d70dd5d8c96a8dd327a7a594",
        "to": "0x2345988ec6c0196821177b90f5e919f18f5324f3",
        "gas": "0xbfcd",
        "value": "0x0",
        "input": "0x4cbd882c0000000000000000000000000000000000000000000000000011c37937e08000",
        "nonce": "0x61",
        "chainId": "0xaa36a7"
      },
      "additionalContracts": [],
      "isFixedGasLimit": false
    }
  ],
  "receipts": [
    {
      "status": "0x1",
      "cumulativeGasUsed": "0x1601b0c",
      "logs": [
        {
          "address": "0x2345988ec6c0196821177b90f5e919f18f5324f3",
          "topics": [
            "0x5dd867e3010e89c86273dfd293660a318f5751183db3eb823fccb822db1798d9",
            "0x00000000000000000000000000000000000000000000000000d529ae9e860000",
            "0x0000000000000000000000000000000000000000000000000011c37937e08000"
          ],
          "data": "0x",
          "blockHash": "0x5646a9f8890176468b7a34b97e6efa3209882b4c22e70374e19ed3adcbfaeffe",
          "blockNumber": "0x5dd551",
          "transactionHash": "0x7d0bc34caeb336e1ace8209d7e6d22d9a06150fa4f7d0f188841b095f694ab5c",
          "transactionIndex": "0x40",
          "logIndex": "0x2a3",
          "removed": false
        }
      ],
      "logsBloom": "0x00000000000000000000000000200000000000000000000000000000000000000000000000000000000080000000000000000000000000000000000000008000000020000000020000020000000000000000000000000000000000000000000000000000000100000000000000000000000000000000000000000000000000000000000000000000000000000000002000000000000000000000000000000000000000000000000000000000000000000000000000000000000000000000000000000000000000000000000000000000000000000000000000000000000000000000000800020000000000000000000000000000200000000000000010000000",
      "type": "0x2",
      "transactionHash": "0x7d0bc34caeb336e1ace8209d7e6d22d9a06150fa4f7d0f188841b095f694ab5c",
      "transactionIndex": "0x40",
      "blockHash": "0x5646a9f8890176468b7a34b97e6efa3209882b4c22e70374e19ed3adcbfaeffe",
      "blockNumber": "0x5dd551",
      "gasUsed": "0x8add",
      "effectiveGasPrice": "0x3b9ef493",
      "from": "0x023953117d262271d70dd5d8c96a8dd327a7a594",
      "to": "0x2345988ec6c0196821177b90f5e919f18f5324f3",
      "contractAddress": null
    }
  ],
  "libraries": [],
  "pending": [],
  "returns": {},
  "timestamp": 1718909526,
  "chain": 11155111,
  "commit": "25f7ab5"
}