{
  "transactions": [
    {
      "hash": "0xac11d04530760db9654e963724feb4cbac693c6dc76184b368baffbccd053ee0",
      "transactionType": "CALL",
      "contractName": null,
      "contractAddress": "0xfff9976782d46cc05630d1f6ebab18b2324d6b14",
      "function": "approve(address,uint256)",
      "arguments": [
        "0x2345988Ec6c0196821177B90F5e919f18F5324F3",
        "500000000000000000"
      ],
      "transaction": {
        "from": "0x1ae60a4910d4c9d09570e36f0e587888ea7ccfb7",
        "to": "0xfff9976782d46cc05630d1f6ebab18b2324d6b14",
        "gas": "0xf879",
        "value": "0x0",
        "input": "0x095ea7b30000000000000000000000002345988ec6c0196821177b90f5e919f18f5324f300000000000000000000000000000000000000000000000006f05b59d3b20000",
        "nonce": "0x1e",
        "chainId": "0xaa36a7"
      },
      "additionalContracts": [],
      "isFixedGasLimit": false
    },
    {
      "hash": "0xee27c8ab0990a6b6a935ed0a17b78306745f67823bf45896589d7eb9338b2cce",
      "transactionType": "CALL",
      "contractName": null,
      "contractAddress": "0x2345988ec6c0196821177b90f5e919f18f5324f3",
      "function": "deposit((address,uint256,address))",
      "arguments": [
        "(0xfFf9976782d46CC05630D1f6eBAb18b2324d6B14, 500000000000000000, 0x1AE60A4910D4C9D09570e36F0E587888eA7cCFB7)"
      ],
      "transaction": {
        "from": "0x1ae60a4910d4c9d09570e36f0e587888ea7ccfb7",
        "to": "0x2345988ec6c0196821177b90f5e919f18f5324f3",
        "gas": "0x1b9a5",
        "value": "0x0",
        "input": "0x0cf8542f000000000000000000000000fff9976782d46cc05630d1f6ebab18b2324d6b1400000000000000000000000000000000000000000000000006f05b59d3b200000000000000000000000000001ae60a4910d4c9d09570e36f0e587888ea7ccfb7",
        "nonce": "0x1f",
        "chainId": "0xaa36a7"
      },
      "additionalContracts": [],
      "isFixedGasLimit": false
    }
  ],
  "receipts": [
    {
      "status": "0x1",
      "cumulativeGasUsed": "0x104b545",
      "logs": [
        {
          "address": "0xfff9976782d46cc05630d1f6ebab18b2324d6b14",
          "topics": [
            "0x8c5be1e5ebec7d5bd14f71427d1e84f3dd0314c0f7b2291e5b200ac8c7c3b925",
            "0x0000000000000000000000001ae60a4910d4c9d09570e36f0e587888ea7ccfb7",
            "0x0000000000000000000000002345988ec6c0196821177b90f5e919f18f5324f3"
          ],
          "data": "0x00000000000000000000000000000000000000000000000006f05b59d3b20000",
          "blockHash": "0xe07048c73d127e688e793ed48bc0678e89a317a70f9fed33a594c905b961c4ca",
          "blockNumber": "0x5ce2bc",
          "transactionHash": "0xac11d04530760db9654e963724feb4cbac693c6dc76184b368baffbccd053ee0",
          "transactionIndex": "0x8a",
          "logIndex": "0x150",
          "removed": false
        }
      ],
      "logsBloom": "0x00000000000000000000000000000000000000000000000000000000000000000000000000000000000000000000000000000000000008000000000000200000000004000000000000000000000000000000000000000000000000000000000000000004000000000000000000000000000000000000000000000000000000000040000000000000000000000000000000000000000000000000000000000000020020000000000000000000000000000000000000000000000000000240000000000000000000000002000000000000000000000000000000000200000000000010000000000000000000000000000000000000000000000000000000000000",
      "type": "0x2",
      "transactionHash": "0xac11d04530760db9654e963724feb4cbac693c6dc76184b368baffbccd053ee0",
      "transactionIndex": "0x8a",
      "blockHash": "0xe07048c73d127e688e793ed48bc0678e89a317a70f9fed33a594c905b961c4ca",
      "blockNumber": "0x5ce2bc",
      "gasUsed": "0xb3e4",
      "effectiveGasPrice": "0xcc82e484",
      "from": "0x1ae60a4910d4c9d09570e36f0e587888ea7ccfb7",
      "to": "0xfff9976782d46cc05630d1f6ebab18b2324d6b14",
      "contractAddress": null
    },
    {
      "status": "0x1",
      "cumulativeGasUsed": "0x105e340",
      "logs": [
        {
          "address": "0xfff9976782d46cc05630d1f6ebab18b2324d6b14",
          "topics": [
            "0xddf252ad1be2c89b69c2b068fc378daa952ba7f163c4a11628f55a4df523b3ef",
            "0x0000000000000000000000001ae60a4910d4c9d09570e36f0e587888ea7ccfb7",
            "0x0000000000000000000000002345988ec6c0196821177b90f5e919f18f5324f3"
          ],
          "data": "0x00000000000000000000000000000000000000000000000006f05b59d3b20000",
          "blockHash": "0xe07048c73d127e688e793ed48bc0678e89a317a70f9fed33a594c905b961c4ca",
          "blockNumber": "0x5ce2bc",
          "transactionHash": "0xee27c8ab0990a6b6a935ed0a17b78306745f67823bf45896589d7eb9338b2cce",
          "transactionIndex": "0x8b",
          "logIndex": "0x151",
          "removed": false
        },
        {
          "address": "0x1158630618f79d5aefcf7c98a69395299238a8dd",
          "topics": [
            "0xddf252ad1be2c89b69c2b068fc378daa952ba7f163c4a11628f55a4df523b3ef",
            "0x0000000000000000000000000000000000000000000000000000000000000000",
            "0x0000000000000000000000001ae60a4910d4c9d09570e36f0e587888ea7ccfb7"
          ],
          "data": "0x00000000000000000000000000000000000000000000000006f05b59d3b20000",
          "blockHash": "0xe07048c73d127e688e793ed48bc0678e89a317a70f9fed33a594c905b961c4ca",
          "blockNumber": "0x5ce2bc",
          "transactionHash": "0xee27c8ab0990a6b6a935ed0a17b78306745f67823bf45896589d7eb9338b2cce",
          "transactionIndex": "0x8b",
          "logIndex": "0x152",
          "removed": false
        },
        {
          "address": "0x2345988ec6c0196821177b90f5e919f18f5324f3",
          "topics": [
            "0x5548c837ab068cf56a2c2479df0882a4922fd203edb7517321831d95078c5f62",
            "0x000000000000000000000000fff9976782d46cc05630d1f6ebab18b2324d6b14",
            "0x0000000000000000000000001ae60a4910d4c9d09570e36f0e587888ea7ccfb7"
          ],
          "data": "0x00000000000000000000000000000000000000000000000006f05b59d3b20000",
          "blockHash": "0xe07048c73d127e688e793ed48bc0678e89a317a70f9fed33a594c905b961c4ca",
          "blockNumber": "0x5ce2bc",
          "transactionHash": "0xee27c8ab0990a6b6a935ed0a17b78306745f67823bf45896589d7eb9338b2cce",
          "transactionIndex": "0x8b",
          "logIndex": "0x153",
          "removed": false
        }
      ],
      "logsBloom": "0x0000000000100000000000000000000000000000000000000000000000000000002000000000000000008000000000000000080000000a000000000040008000000004000008000000000008000000000000000000000000000000000000000000000004020000000000000000800800000000000000000000000010000000000040000000000000000000000000002000000000000000000000000000000000000020000000000000000040000000000000000000000000000000000240000000000002000000000002000001000000000000000000000000000200000020000000000000000000000000000000000000000000000000000000000000000000",
      "type": "0x2",
      "transactionHash": "0xee27c8ab0990a6b6a935ed0a17b78306745f67823bf45896589d7eb9338b2cce",
      "transactionIndex": "0x8b",
      "blockHash": "0xe07048c73d127e688e793ed48bc0678e89a317a70f9fed33a594c905b961c4ca",
      "blockNumber": "0x5ce2bc",
      "gasUsed": "0x12dfb",
      "effectiveGasPrice": "0xcc82e484",
      "from": "0x1ae60a4910d4c9d09570e36f0e587888ea7ccfb7",
      "to": "0x2345988ec6c0196821177b90f5e919f18f5324f3",
      "contractAddress": null
    }
  ],
  "libraries": [],
  "pending": [],
  "returns": {},
  "timestamp": 1718131987,
  "chain": 11155111,
  "commit": "e5a9f0a"
}