{
  "transactions": [
    {
      "hash": "0x44694eca52cbdc0cf52c2c81b3540afb6032d9ddec8109a16ded3d0c4ca04f9a",
      "transactionType": "CALL",
      "contractName": null,
      "contractAddress": "0xfff9976782d46cc05630d1f6ebab18b2324d6b14",
      "function": "approve(address,uint256)",
      "arguments": [
        "0x2345988Ec6c0196821177B90F5e919f18F5324F3",
        "10000000000000000"
      ],
      "transaction": {
        "from": "0x1ae60a4910d4c9d09570e36f0e587888ea7ccfb7",
        "to": "0xfff9976782d46cc05630d1f6ebab18b2324d6b14",
        "gas": "0xf868",
        "value": "0x0",
        "input": "0x095ea7b30000000000000000000000002345988ec6c0196821177b90f5e919f18f5324f3000000000000000000000000000000000000000000000000002386f26fc10000",
        "nonce": "0xe",
        "chainId": "0xaa36a7"
      },
      "additionalContracts": [],
      "isFixedGasLimit": false
    },
    {
      "hash": "0xacf352ace3642d52f98698a500f58827afb4b4931895bd505ed4c6e327ac9227",
      "transactionType": "CALL",
      "contractName": null,
      "contractAddress": "0x2345988ec6c0196821177b90f5e919f18f5324f3",
      "function": "deposit((address,uint256,address))",
      "arguments": [
        "(0xfFf9976782d46CC05630D1f6eBAb18b2324d6B14, 10000000000000000, 0x1AE60A4910D4C9D09570e36F0E587888eA7cCFB7)"
      ],
      "transaction": {
        "from": "0x1ae60a4910d4c9d09570e36f0e587888ea7ccfb7",
        "to": "0x2345988ec6c0196821177b90f5e919f18f5324f3",
        "gas": "0x1baf0",
        "value": "0x0",
        "input": "0x0cf8542f000000000000000000000000fff9976782d46cc05630d1f6ebab18b2324d6b14000000000000000000000000000000000000000000000000002386f26fc100000000000000000000000000001ae60a4910d4c9d09570e36f0e587888ea7ccfb7",
        "nonce": "0xf",
        "chainId": "0xaa36a7"
      },
      "additionalContracts": [],
      "isFixedGasLimit": false
    }
  ],
  "receipts": [
    {
      "status": "0x1",
      "cumulativeGasUsed": "0x6ddf2b",
      "logs": [
        {
          "address": "0xfff9976782d46cc05630d1f6ebab18b2324d6b14",
          "topics": [
            "0x8c5be1e5ebec7d5bd14f71427d1e84f3dd0314c0f7b2291e5b200ac8c7c3b925",
            "0x0000000000000000000000001ae60a4910d4c9d09570e36f0e587888ea7ccfb7",
            "0x0000000000000000000000002345988ec6c0196821177b90f5e919f18f5324f3"
          ],
          "data": "0x000000000000000000000000000000000000000000000000002386f26fc10000",
          "blockHash": "0xaa52aac9820ddbb1471795be0b7bd93515d361ee8ef8e661df964f91994e6143",
          "blockNumber": "0x5cb65d",
          "transactionHash": "0x44694eca52cbdc0cf52c2c81b3540afb6032d9ddec8109a16ded3d0c4ca04f9a",
          "transactionIndex": "0x3b",
          "logIndex": "0x59",
          "removed": false
        }
      ],
      "logsBloom": "0x00000000000000000000000000000000000000000000000000000000000000000000000000000000000000000000000000000000000008000000000000200000000004000000000000000000000000000000000000000000000000000000000000000004000000000000000000000000000000000000000000000000000000000040000000000000000000000000000000000000000000000000000000000000020020000000000000000000000000000000000000000000000000000240000000000000000000000002000000000000000000000000000000000200000000000010000000000000000000000000000000000000000000000000000000000000",
      "type": "0x2",
      "transactionHash": "0x44694eca52cbdc0cf52c2c81b3540afb6032d9ddec8109a16ded3d0c4ca04f9a",
      "transactionIndex": "0x3b",
      "blockHash": "0xaa52aac9820ddbb1471795be0b7bd93515d361ee8ef8e661df964f91994e6143",
      "blockNumber": "0x5cb65d",
      "gasUsed": "0xb3d8",
      "effectiveGasPrice": "0x13bcb6b",
      "from": "0x1ae60a4910d4c9d09570e36f0e587888ea7ccfb7",
      "to": "0xfff9976782d46cc05630d1f6ebab18b2324d6b14",
      "contractAddress": null
    },
    {
      "status": "0x1",
      "cumulativeGasUsed": "0x6f1fda",
      "logs": [
        {
          "address": "0xfff9976782d46cc05630d1f6ebab18b2324d6b14",
          "topics": [
            "0xddf252ad1be2c89b69c2b068fc378daa952ba7f163c4a11628f55a4df523b3ef",
            "0x0000000000000000000000001ae60a4910d4c9d09570e36f0e587888ea7ccfb7",
            "0x0000000000000000000000002345988ec6c0196821177b90f5e919f18f5324f3"
          ],
          "data": "0x000000000000000000000000000000000000000000000000002386f26fc10000",
          "blockHash": "0xaa52aac9820ddbb1471795be0b7bd93515d361ee8ef8e661df964f91994e6143",
          "blockNumber": "0x5cb65d",
          "transactionHash": "0xacf352ace3642d52f98698a500f58827afb4b4931895bd505ed4c6e327ac9227",
          "transactionIndex": "0x3c",
          "logIndex": "0x5a",
          "removed": false
        },
        {
          "address": "0x1158630618f79d5aefcf7c98a69395299238a8dd",
          "topics": [
            "0xddf252ad1be2c89b69c2b068fc378daa952ba7f163c4a11628f55a4df523b3ef",
            "0x0000000000000000000000000000000000000000000000000000000000000000",
            "0x0000000000000000000000001ae60a4910d4c9d09570e36f0e587888ea7ccfb7"
          ],
          "data": "0x000000000000000000000000000000000000000000000000002386f26fc10000",
          "blockHash": "0xaa52aac9820ddbb1471795be0b7bd93515d361ee8ef8e661df964f91994e6143",
          "blockNumber": "0x5cb65d",
          "transactionHash": "0xacf352ace3642d52f98698a500f58827afb4b4931895bd505ed4c6e327ac9227",
          "transactionIndex": "0x3c",
          "logIndex": "0x5b",
          "removed": false
        },
        {
          "address": "0x2345988ec6c0196821177b90f5e919f18f5324f3",
          "topics": [
            "0x5548c837ab068cf56a2c2479df0882a4922fd203edb7517321831d95078c5f62",
            "0x000000000000000000000000fff9976782d46cc05630d1f6ebab18b2324d6b14",
            "0x0000000000000000000000001ae60a4910d4c9d09570e36f0e587888ea7ccfb7"
          ],
          "data": "0x000000000000000000000000000000000000000000000000002386f26fc10000",
          "blockHash": "0xaa52aac9820ddbb1471795be0b7bd93515d361ee8ef8e661df964f91994e6143",
          "blockNumber": "0x5cb65d",
          "transactionHash": "0xacf352ace3642d52f98698a500f58827afb4b4931895bd505ed4c6e327ac9227",
          "transactionIndex": "0x3c",
          "logIndex": "0x5c",
          "removed": false
        }
      ],
      "logsBloom": "0x0000000000100000000000000000000000000000000000000000000000000000002000000000000000008000000000000000080000000a000000000040008000000004000008000000000008000000000000000000000000000000000000000000000004020000000000000000800800000000000000000000000010000000000040000000000000000000000000002000000000000000000000000000000000000020000000000000000040000000000000000000000000000000000240000000000002000000000002000001000000000000000000000000000200000020000000000000000000000000000000000000000000000000000000000000000000",
      "type": "0x2",
      "transactionHash": "0xacf352ace3642d52f98698a500f58827afb4b4931895bd505ed4c6e327ac9227",
      "transactionIndex": "0x3c",
      "blockHash": "0xaa52aac9820ddbb1471795be0b7bd93515d361ee8ef8e661df964f91994e6143",
      "blockNumber": "0x5cb65d",
      "gasUsed": "0x140af",
      "effectiveGasPrice": "0x13bcb6b",
      "from": "0x1ae60a4910d4c9d09570e36f0e587888ea7ccfb7",
      "to": "0x2345988ec6c0196821177b90f5e919f18f5324f3",
      "contractAddress": null
    }
  ],
  "libraries": [],
  "pending": [],
  "returns": {},
  "timestamp": 1717990271,
  "chain": 11155111,
  "commit": "b77c4e2"
}