{
  "transactions": [
    {
      "hash": "0xd5833f4a30a74f4e08e69068a9934b2ef67b8f64bbbaef034ae3f1f58816e229",
      "transactionType": "CALL",
      "contractName": null,
      "contractAddress": "0x4200000000000000000000000000000000000006",
      "function": "approve(address,uint256)",
      "arguments": [
        "0x44f269A2A520F18aF6215038a8FE1d660ed5986E",
        "30000000000000000"
      ],
      "transaction": {
        "from": "0x023953117d262271d70dd5d8c96a8dd327a7a594",
        "to": "0x4200000000000000000000000000000000000006",
        "gas": "0x106e6",
        "value": "0x0",
        "input": "0x095ea7b300000000000000000000000044f269a2a520f18af6215038a8fe1d660ed5986e000000000000000000000000000000000000000000000000006a94d74f430000",
        "nonce": "0x2d",
        "chainId": "0x2105"
      },
      "additionalContracts": [],
      "isFixedGasLimit": false
    },
    {
      "hash": "0x6048605495aa788e62515d95f316d11426a80c995f5779b0bd201848cdb73a43",
      "transactionType": "CALL",
      "contractName": null,
      "contractAddress": "0x44f269a2a520f18af6215038a8fe1d660ed5986e",
      "function": "deposit((address,uint256,address))",
      "arguments": [
        "(0x4200000000000000000000000000000000000006, 30000000000000000, 0x023953117D262271d70Dd5d8C96A8Dd327A7A594)"
      ],
      "transaction": {
        "from": "0x023953117d262271d70dd5d8c96a8dd327a7a594",
        "to": "0x44f269a2a520f18af6215038a8fe1d660ed5986e",
        "gas": "0x2dbff",
        "value": "0x0",
        "input": "0x0cf8542f0000000000000000000000004200000000000000000000000000000000000006000000000000000000000000000000000000000000000000006a94d74f430000000000000000000000000000023953117d262271d70dd5d8c96a8dd327a7a594",
        "nonce": "0x2e",
        "chainId": "0x2105"
      },
      "additionalContracts": [],
      "isFixedGasLimit": false
    }
  ],
  "receipts": [
    {
      "status": "0x1",
      "cumulativeGasUsed": "0xbb673c",
      "logs": [
        {
          "address": "0x4200000000000000000000000000000000000006",
          "topics": [
            "0x8c5be1e5ebec7d5bd14f71427d1e84f3dd0314c0f7b2291e5b200ac8c7c3b925",
            "0x000000000000000000000000023953117d262271d70dd5d8c96a8dd327a7a594",
            "0x00000000000000000000000044f269a2a520f18af6215038a8fe1d660ed5986e"
          ],
          "data": "0x000000000000000000000000000000000000000000000000006a94d74f430000",
          "blockHash": "0x8e2cbb1c6e8d85554e87eab78c41472a116ac1d9b44ecd243c7c312507c5042e",
          "blockNumber": "0x1097ac8",
          "transactionHash": "0xd5833f4a30a74f4e08e69068a9934b2ef67b8f64bbbaef034ae3f1f58816e229",
          "transactionIndex": "0x52",
          "logIndex": "0xfa",
          "removed": false
        }
      ],
      "logsBloom": "0x00000000000000000000000000000000000000000000000000040000000000000010000000000000000000100000000000000000000000000000000000200000000000000000000000000000000000000000000000000000000000000000000000000000000000008000000000080000000000000000000000000000100000000000000000000000000000000000000000000000002000000000000000000000020000000000000000000000000000000000000000000000000000000000000000000000000000000000000000000000000000000000000000020000000000000018000000000000000000000000000000000000000000000000000000000000",
      "type": "0x2",
      "transactionHash": "0xd5833f4a30a74f4e08e69068a9934b2ef67b8f64bbbaef034ae3f1f58816e229",
      "transactionIndex": "0x52",
      "blockHash": "0x8e2cbb1c6e8d85554e87eab78c41472a116ac1d9b44ecd243c7c312507c5042e",
      "blockNumber": "0x1097ac8",
      "gasUsed": "0xb3c3",
      "effectiveGasPrice": "0x21ec414",
      "from": "0x023953117d262271d70dd5d8c96a8dd327a7a594",
      "to": "0x4200000000000000000000000000000000000006",
      "contractAddress": null,
      "l1BaseFeeScalar": "0x8dd",
      "l1BlobBaseFee": "0x1",
      "l1BlobBaseFeeScalar": "0x101c12",
      "l1Fee": "0x1bcb4c8ba7",
      "l1GasPrice": "0x7a7ebe72c",
      "l1GasUsed": "0x640"
    },
    {
      "status": "0x1",
      "cumulativeGasUsed": "0xbd5bbf",
      "logs": [
        {
          "address": "0x4200000000000000000000000000000000000006",
          "topics": [
            "0xddf252ad1be2c89b69c2b068fc378daa952ba7f163c4a11628f55a4df523b3ef",
            "0x000000000000000000000000023953117d262271d70dd5d8c96a8dd327a7a594",
            "0x00000000000000000000000044f269a2a520f18af6215038a8fe1d660ed5986e"
          ],
          "data": "0x000000000000000000000000000000000000000000000000006a94d74f430000",
          "blockHash": "0x8e2cbb1c6e8d85554e87eab78c41472a116ac1d9b44ecd243c7c312507c5042e",
          "blockNumber": "0x1097ac8",
          "transactionHash": "0x6048605495aa788e62515d95f316d11426a80c995f5779b0bd201848cdb73a43",
          "transactionIndex": "0x53",
          "logIndex": "0xfb",
          "removed": false
        },
        {
          "address": "0x7458d7272e3be580f6172db5b0d70ade8d90ed61",
          "topics": [
            "0xddf252ad1be2c89b69c2b068fc378daa952ba7f163c4a11628f55a4df523b3ef",
            "0x0000000000000000000000000000000000000000000000000000000000000000",
            "0x000000000000000000000000023953117d262271d70dd5d8c96a8dd327a7a594"
          ],
          "data": "0x000000000000000000000000000000000000000000000000006a94d74f430000",
          "blockHash": "0x8e2cbb1c6e8d85554e87eab78c41472a116ac1d9b44ecd243c7c312507c5042e",
          "blockNumber": "0x1097ac8",
          "transactionHash": "0x6048605495aa788e62515d95f316d11426a80c995f5779b0bd201848cdb73a43",
          "transactionIndex": "0x53",
          "logIndex": "0xfc",
          "removed": false
        },
        {
          "address": "0x44f269a2a520f18af6215038a8fe1d660ed5986e",
          "topics": [
            "0x5548c837ab068cf56a2c2479df0882a4922fd203edb7517321831d95078c5f62",
            "0x0000000000000000000000004200000000000000000000000000000000000006",
            "0x000000000000000000000000023953117d262271d70dd5d8c96a8dd327a7a594"
          ],
          "data": "0x000000000000000000000000000000000000000000000000006a94d74f430000",
          "blockHash": "0x8e2cbb1c6e8d85554e87eab78c41472a116ac1d9b44ecd243c7c312507c5042e",
          "blockNumber": "0x1097ac8",
          "transactionHash": "0x6048605495aa788e62515d95f316d11426a80c995f5779b0bd201848cdb73a43",
          "transactionIndex": "0x53",
          "logIndex": "0xfd",
          "removed": false
        }
      ],
      "logsBloom": "0x00000000000000000000000000000000000000000000000000040000000000000010100000000000000000100000000000000000000002000020000040000000000000000008000000000008000000000000000000000000000000000000000000000100020000008000000000080800000010000000000000000010100000000000000100000000000000000000000000000000002000000000000000000000000000000000000000000000000000000000000000000000000000000000000000000002000004008000000000000000000000000000000004020000000020000008000010000000000000000000000000000000000000000000000000000000",
      "type": "0x2",
      "transactionHash": "0x6048605495aa788e62515d95f316d11426a80c995f5779b0bd201848cdb73a43",
      "transactionIndex": "0x53",
      "blockHash": "0x8e2cbb1c6e8d85554e87eab78c41472a116ac1d9b44ecd243c7c312507c5042e",
      "blockNumber": "0x1097ac8",
      "gasUsed": "0x1f483",
      "effectiveGasPrice": "0x21ec414",
      "from": "0x023953117d262271d70dd5d8c96a8dd327a7a594",
      "to": "0x44f269a2a520f18af6215038a8fe1d660ed5986e",
      "contractAddress": null,
      "l1BaseFeeScalar": "0x8dd",
      "l1BlobBaseFee": "0x1",
      "l1BlobBaseFeeScalar": "0x101c12",
      "l1Fee": "0x1bcb4c8ba7",
      "l1GasPrice": "0x7a7ebe72c",
      "l1GasUsed": "0x640"
    }
  ],
  "libraries": [],
  "pending": [],
  "returns": {},
  "timestamp": 1721586297,
  "chain": 8453,
  "commit": "ef5bff9"
}