{
  "transactions": [
    {
      "hash": "0xa68f8ad685ee7a2d08a2273c48c43d900f09674dce10de79555f2dc50366c4a8",
      "transactionType": "CALL",
      "contractName": null,
      "contractAddress": "0x833589fcd6edb6e08f4c7c32d4f71b54bda02913",
      "function": "approve(address,uint256)",
      "arguments": [
        "0x44f269A2A520F18aF6215038a8FE1d660ed5986E",
        "50000000"
      ],
      "transaction": {
        "from": "0x5b0ced6f9302676f2077a30dc990b19887add89a",
        "to": "0x833589fcd6edb6e08f4c7c32d4f71b54bda02913",
        "gas": "0x13cc6",
        "value": "0x0",
        "input": "0x095ea7b300000000000000000000000044f269a2a520f18af6215038a8fe1d660ed5986e0000000000000000000000000000000000000000000000000000000002faf080",
        "nonce": "0x0",
        "chainId": "0x2105"
      },
      "additionalContracts": [],
      "isFixedGasLimit": false
    },
    {
      "hash": "0x75145af1889483b0fcc0099103f42c5aaa0ce2578c5b7c9e310a760265eaa5e4",
      "transactionType": "CALL",
      "contractName": null,
      "contractAddress": "0x44f269a2a520f18af6215038a8fe1d660ed5986e",
      "function": "deposit((address,uint256,address))",
      "arguments": [
        "(0x833589fCD6eDb6E08f4c7C32D4f71b54bdA02913, 50000000, 0x5B0CEd6F9302676f2077a30Dc990b19887AdD89A)"
      ],
      "transaction": {
        "from": "0x5b0ced6f9302676f2077a30dc990b19887add89a",
        "to": "0x44f269a2a520f18af6215038a8fe1d660ed5986e",
        "gas": "0x58432",
        "value": "0x0",
        "input": "0x0cf8542f000000000000000000000000833589fcd6edb6e08f4c7c32d4f71b54bda029130000000000000000000000000000000000000000000000000000000002faf0800000000000000000000000005b0ced6f9302676f2077a30dc990b19887add89a",
        "nonce": "0x1",
        "chainId": "0x2105"
      },
      "additionalContracts": [],
      "isFixedGasLimit": false
    }
  ],
  "receipts": [
    {
      "status": "0x1",
      "cumulativeGasUsed": "0xea3891",
      "logs": [
        {
          "address": "0x833589fcd6edb6e08f4c7c32d4f71b54bda02913",
          "topics": [
            "0x8c5be1e5ebec7d5bd14f71427d1e84f3dd0314c0f7b2291e5b200ac8c7c3b925",
            "0x0000000000000000000000005b0ced6f9302676f2077a30dc990b19887add89a",
            "0x00000000000000000000000044f269a2a520f18af6215038a8fe1d660ed5986e"
          ],
          "data": "0x0000000000000000000000000000000000000000000000000000000002faf080",
          "blockHash": "0x2f1e62cfc3edc97742806a7a632918457258fdca7acd1f457a994f90ce49118c",
          "blockNumber": "0x1097998",
          "transactionHash": "0xa68f8ad685ee7a2d08a2273c48c43d900f09674dce10de79555f2dc50366c4a8",
          "transactionIndex": "0x44",
          "logIndex": "0x16d",
          "removed": false
        }
      ],
      "logsBloom": "0x000000000000000000000000080000000000000000000000000000000000000000100000000000000000000000001000000000000000000000000000002000000000040000000000000000000000000000000000000800000000000000000000008000000000000000000000000000000000000000000000000000000000000000000000000000000000000000000000000000000000000000000000000000000a0000000000000000000000000000000000000000000000000000000000000000000000000000000000000000000000000000000000000000020000000000000018000000000000000000000000000000000000000000000000000000000000",
      "type": "0x2",
      "transactionHash": "0xa68f8ad685ee7a2d08a2273c48c43d900f09674dce10de79555f2dc50366c4a8",
      "transactionIndex": "0x44",
      "blockHash": "0x2f1e62cfc3edc97742806a7a632918457258fdca7acd1f457a994f90ce49118c",
      "blockNumber": "0x1097998",
      "gasUsed": "0xd899",
      "effectiveGasPrice": "0x1e30285",
      "from": "0x5b0ced6f9302676f2077a30dc990b19887add89a",
      "to": "0x833589fcd6edb6e08f4c7c32d4f71b54bda02913",
      "contractAddress": null,
      "l1BaseFeeScalar": "0x8dd",
      "l1BlobBaseFee": "0x1",
      "l1BlobBaseFeeScalar": "0x101c12",
      "l1Fee": "0x1e0fc9997a",
      "l1GasPrice": "0x847d16c81",
      "l1GasUsed": "0x640"
    },
    {
      "status": "0x1",
      "cumulativeGasUsed": "0xedfe2c",
      "logs": [
        {
          "address": "0x833589fcd6edb6e08f4c7c32d4f71b54bda02913",
          "topics": [
            "0xddf252ad1be2c89b69c2b068fc378daa952ba7f163c4a11628f55a4df523b3ef",
            "0x0000000000000000000000005b0ced6f9302676f2077a30dc990b19887add89a",
            "0x00000000000000000000000044f269a2a520f18af6215038a8fe1d660ed5986e"
          ],
          "data": "0x0000000000000000000000000000000000000000000000000000000002faf080",
          "blockHash": "0x2f1e62cfc3edc97742806a7a632918457258fdca7acd1f457a994f90ce49118c",
          "blockNumber": "0x1097998",
          "transactionHash": "0x75145af1889483b0fcc0099103f42c5aaa0ce2578c5b7c9e310a760265eaa5e4",
          "transactionIndex": "0x45",
          "logIndex": "0x16e",
          "removed": false
        },
        {
          "address": "0x833589fcd6edb6e08f4c7c32d4f71b54bda02913",
          "topics": [
            "0x8c5be1e5ebec7d5bd14f71427d1e84f3dd0314c0f7b2291e5b200ac8c7c3b925",
            "0x00000000000000000000000044f269a2a520f18af6215038a8fe1d660ed5986e",
            "0x00000000000000000000000064b68c0ef85e4a6b538e7a68bbb7a2aa20a43798"
          ],
          "data": "0x0000000000000000000000000000000000000000000000000000000002faf080",
          "blockHash": "0x2f1e62cfc3edc97742806a7a632918457258fdca7acd1f457a994f90ce49118c",
          "blockNumber": "0x1097998",
          "transactionHash": "0x75145af1889483b0fcc0099103f42c5aaa0ce2578c5b7c9e310a760265eaa5e4",
          "transactionIndex": "0x45",
          "logIndex": "0x16f",
          "removed": false
        },
        {
          "address": "0x833589fcd6edb6e08f4c7c32d4f71b54bda02913",
          "topics": [
            "0xddf252ad1be2c89b69c2b068fc378daa952ba7f163c4a11628f55a4df523b3ef",
            "0x00000000000000000000000044f269a2a520f18af6215038a8fe1d660ed5986e",
            "0x000000000000000000000000eabe27f5987d41dd06ac457907acc84b9b15c4a8"
          ],
          "data": "0x0000000000000000000000000000000000000000000000000000000002faf080",
          "blockHash": "0x2f1e62cfc3edc97742806a7a632918457258fdca7acd1f457a994f90ce49118c",
          "blockNumber": "0x1097998",
          "transactionHash": "0x75145af1889483b0fcc0099103f42c5aaa0ce2578c5b7c9e310a760265eaa5e4",
          "transactionIndex": "0x45",
          "logIndex": "0x170",
          "removed": false
        },
        {
          "address": "0xeabe27f5987d41dd06ac457907acc84b9b15c4a8",
          "topics": [
            "0xddf252ad1be2c89b69c2b068fc378daa952ba7f163c4a11628f55a4df523b3ef",
            "0x0000000000000000000000000000000000000000000000000000000000000000",
            "0x00000000000000000000000044f269a2a520f18af6215038a8fe1d660ed5986e"
          ],
          "data": "0x0000000000000000000000000000000000000000000000000000000002faf080",
          "blockHash": "0x2f1e62cfc3edc97742806a7a632918457258fdca7acd1f457a994f90ce49118c",
          "blockNumber": "0x1097998",
          "transactionHash": "0x75145af1889483b0fcc0099103f42c5aaa0ce2578c5b7c9e310a760265eaa5e4",
          "transactionIndex": "0x45",
          "logIndex": "0x171",
          "removed": false
        },
        {
          "address": "0xeabe27f5987d41dd06ac457907acc84b9b15c4a8",
          "topics": [
            "0x458f5fa412d0f69b08dd84872b0215675cc67bc1d5b6fd93300a1c3878b86196",
            "0x00000000000000000000000064b68c0ef85e4a6b538e7a68bbb7a2aa20a43798",
            "0x00000000000000000000000044f269a2a520f18af6215038a8fe1d660ed5986e"
          ],
          "data": "0x0000000000000000000000000000000000000000000000000000000002faf08000000000000000000000000000000000000000000000000000000000000000000000000000000000000000000000000000000000033b2e3c9fd0803ce8000000",
          "blockHash": "0x2f1e62cfc3edc97742806a7a632918457258fdca7acd1f457a994f90ce49118c",
          "blockNumber": "0x1097998",
          "transactionHash": "0x75145af1889483b0fcc0099103f42c5aaa0ce2578c5b7c9e310a760265eaa5e4",
          "transactionIndex": "0x45",
          "logIndex": "0x172",
          "removed": false
        },
        {
          "address": "0x967b76e09bb448b0342683da47a1b8fd765158af",
          "topics": [
            "0xddf252ad1be2c89b69c2b068fc378daa952ba7f163c4a11628f55a4df523b3ef",
            "0x0000000000000000000000000000000000000000000000000000000000000000",
            "0x0000000000000000000000005b0ced6f9302676f2077a30dc990b19887add89a"
          ],
          "data": "0x0000000000000000000000000000000000000000000000000000000002faf080",
          "blockHash": "0x2f1e62cfc3edc97742806a7a632918457258fdca7acd1f457a994f90ce49118c",
          "blockNumber": "0x1097998",
          "transactionHash": "0x75145af1889483b0fcc0099103f42c5aaa0ce2578c5b7c9e310a760265eaa5e4",
          "transactionIndex": "0x45",
          "logIndex": "0x173",
          "removed": false
        },
        {
          "address": "0x967b76e09bb448b0342683da47a1b8fd765158af",
          "topics": [
            "0x1dd3ef30dcefc8c588a88fe8610a9b5946656cf752b640cff3e99b7dcfc287ba",
            "0x0000000000000000000000000000000000000000000000000000000000000000",
            "0x0000000000000000000000005b0ced6f9302676f2077a30dc990b19887add89a"
          ],
          "data": "0x0000000000000000000000000000000000000000000000000000000002faf080",
          "blockHash": "0x2f1e62cfc3edc97742806a7a632918457258fdca7acd1f457a994f90ce49118c",
          "blockNumber": "0x1097998",
          "transactionHash": "0x75145af1889483b0fcc0099103f42c5aaa0ce2578c5b7c9e310a760265eaa5e4",
          "transactionIndex": "0x45",
          "logIndex": "0x174",
          "removed": false
        },
        {
          "address": "0x44f269a2a520f18af6215038a8fe1d660ed5986e",
          "topics": [
            "0x5548c837ab068cf56a2c2479df0882a4922fd203edb7517321831d95078c5f62",
            "0x000000000000000000000000833589fcd6edb6e08f4c7c32d4f71b54bda02913",
            "0x0000000000000000000000005b0ced6f9302676f2077a30dc990b19887add89a"
          ],
          "data": "0x0000000000000000000000000000000000000000000000000000000002faf080",
          "blockHash": "0x2f1e62cfc3edc97742806a7a632918457258fdca7acd1f457a994f90ce49118c",
          "blockNumber": "0x1097998",
          "transactionHash": "0x75145af1889483b0fcc0099103f42c5aaa0ce2578c5b7c9e310a760265eaa5e4",
          "transactionIndex": "0x45",
          "logIndex": "0x175",
          "removed": false
        }
      ],
      "logsBloom": "0x000000000000000004000000080000000000000000000000000000000000000000101000000000000000000000041000000000000000020000000000402000008000040000080400000000080000000000000000000800200000000400000000008200000200000000000000000008000100000000000000000000100000000000000001000000004000000000000000000000000000000000000000000000000a0000008000000000000000000004800000000000000200000000000000000002000002000000000000000100000000000000000000000000820000000920000018000010000000000000000000000000000080200000000000000100000000",
      "type": "0x2",
      "transactionHash": "0x75145af1889483b0fcc0099103f42c5aaa0ce2578c5b7c9e310a760265eaa5e4",
      "transactionIndex": "0x45",
      "blockHash": "0x2f1e62cfc3edc97742806a7a632918457258fdca7acd1f457a994f90ce49118c",
      "blockNumber": "0x1097998",
      "gasUsed": "0x3c59b",
      "effectiveGasPrice": "0x1e30285",
      "from": "0x5b0ced6f9302676f2077a30dc990b19887add89a",
      "to": "0x44f269a2a520f18af6215038a8fe1d660ed5986e",
      "contractAddress": null,
      "l1BaseFeeScalar": "0x8dd",
      "l1BlobBaseFee": "0x1",
      "l1BlobBaseFeeScalar": "0x101c12",
      "l1Fee": "0x20763ffd0f",
      "l1GasPrice": "0x847d16c81",
      "l1GasUsed": "0x6bf"
    }
  ],
  "libraries": [],
  "pending": [],
  "returns": {},
  "timestamp": 1721585689,
  "chain": 8453,
  "commit": "ef5bff9"
}