{
  "transactions": [
    {
      "hash": "0x55ecbf4310f02f36187e06af0f65dd37eee38b77a8ab64cb129f1fd6e30ecb2d",
      "transactionType": "CALL",
      "contractName": null,
      "contractAddress": "0x2345988ec6c0196821177b90f5e919f18f5324f3",
      "function": "buyCreditLimit((uint256,(uint256[],int256[],uint256[])))",
      "arguments": [
        "(1720586040, ([86400, 259200], [100000000000000000, 200000000000000000], [1000000000000000000, 1000000000000000000]))"
      ],
      "transaction": {
        "from": "0xf002435375ab5867617c0c5733793482daa05990",
        "to": "0x2345988ec6c0196821177b90f5e919f18f5324f3",
        "gas": "0x5dc30",
        "value": "0x0",
        "input": "0x3746f858000000000000000000000000000000000000000000000000000000000000002000000000000000000000000000000000000000000000000000000000668e0f380000000000000000000000000000000000000000000000000000000000000040000000000000000000000000000000000000000000000000000000000000006000000000000000000000000000000000000000000000000000000000000000c0000000000000000000000000000000000000000000000000000000000000012000000000000000000000000000000000000000000000000000000000000000020000000000000000000000000000000000000000000000000000000000015180000000000000000000000000000000000000000000000000000000000003f4800000000000000000000000000000000000000000000000000000000000000002000000000000000000000000000000000000000000000000016345785d8a000000000000000000000000000000000000000000000000000002c68af0bb14000000000000000000000000000000000000000000000000000000000000000000020000000000000000000000000000000000000000000000000de0b6b3a76400000000000000000000000000000000000000000000000000000de0b6b3a7640000",
        "nonce": "0x3",
        "chainId": "0xaa36a7"
      },
      "additionalContracts": [],
      "isFixedGasLimit": false
    }
  ],
  "receipts": [
    {
      "status": "0x1",
      "cumulativeGasUsed": "0x77ab32",
      "logs": [
        {
          "address": "0x2345988ec6c0196821177b90f5e919f18f5324f3",
          "topics": [
            "0xc8871d6792330ffe03599518801289027505937d3a59e47d58e8138932305ecb",
            "0x00000000000000000000000000000000000000000000000000000000668e0f38"
          ],
          "data": "0x000000000000000000000000000000000000000000000000000000000000006000000000000000000000000000000000000000000000000000000000000000c0000000000000000000000000000000000000000000000000000000000000012000000000000000000000000000000000000000000000000000000000000000020000000000000000000000000000000000000000000000000000000000015180000000000000000000000000000000000000000000000000000000000003f4800000000000000000000000000000000000000000000000000000000000000002000000000000000000000000000000000000000000000000016345785d8a000000000000000000000000000000000000000000000000000002c68af0bb14000000000000000000000000000000000000000000000000000000000000000000020000000000000000000000000000000000000000000000000de0b6b3a76400000000000000000000000000000000000000000000000000000de0b6b3a7640000",
          "blockHash": "0x5471da8407b2e250ddab257118df7b864c570bc2d52251083c0964cbc6b1aa4d",
          "blockNumber": "0x5cb787",
          "transactionHash": "0x55ecbf4310f02f36187e06af0f65dd37eee38b77a8ab64cb129f1fd6e30ecb2d",
          "transactionIndex": "0x1e",
          "logIndex": "0x76",
          "removed": false
        }
      ],
      "logsBloom": "0x00000000000000000000000000000000000000000000000000000000000000400000000200000000000080000000000000008000000000000000000000008000000000000000000000000000000000000000000000000000000000000000000000000000000000000000000000000000000000000000000000000000000000000000000000000000000000000000002000000000000000000000000000000000000000000000000000000000000000000000000000000010000000000000000000000000000000000000000000000000000000000000000000000000000000000000000000000000000000000000002000000000000000000000000200000000",
      "type": "0x2",
      "transactionHash": "0x55ecbf4310f02f36187e06af0f65dd37eee38b77a8ab64cb129f1fd6e30ecb2d",
      "transactionIndex": "0x1e",
      "blockHash": "0x5471da8407b2e250ddab257118df7b864c570bc2d52251083c0964cbc6b1aa4d",
      "blockNumber": "0x5cb787",
      "gasUsed": "0x43e1d",
      "effectiveGasPrice": "0x3ba18c44",
      "from": "0xf002435375ab5867617c0c5733793482daa05990",
      "to": "0x2345988ec6c0196821177b90f5e919f18f5324f3",
      "contractAddress": null
    }
  ],
  "libraries": [],
  "pending": [],
  "returns": {},
  "timestamp": 1717994067,
  "chain": 11155111,
  "commit": "e701b76"
}