{
  "transactions": [
    {
      "hash": "0x7849b8a46d2f33c11a560c72b51ccbe945211db69c0d631f3fa6955703edb6c2",
      "transactionType": "CALL",
      "contractName": null,
      "contractAddress": "0x5413ee79fd481e603dab8e595474942e2bd48469",
      "function": "setEarlyRepaymentBuffer(uint256)",
      "arguments": [
        "86400"
      ],
      "transaction": {
        "from": "0xde5c38699a7057a33524f96e62bb1987c2568816",
        "to": "0x5413ee79fd481e603dab8e595474942e2bd48469",
        "gas": "0xbcc1",
        "value": "0x0",
        "input": "0xa97c777b0000000000000000000000000000000000000000000000000000000000015180",
        "nonce": "0xff8",
        "chainId": "0x1"
      },
      "additionalContracts": [],
      "isFixedGasLimit": false
    }
  ],
  "receipts": [
    {
      "status": "0x1",
      "cumulativeGasUsed": "0xfc611a",
      "logs": [
        {
          "address": "0x5413ee79fd481e603dab8e595474942e2bd48469",
          "topics": [
            "0x3072d33e18b59618461ea77e738b0cec6252725eefa85f12cc9b5c6d8baa7bde"
          ],
          "data": "0x0000000000000000000000000000000000000000000000000000000000093a800000000000000000000000000000000000000000000000000000000000015180",
          "blockHash": "0xcf7baabf6725cff370fc2a809afd85ad471f5aa5b64f70c2b0eb6e98e21182af",
          "blockNumber": "0x15bda3a",
          "blockTimestamp": "0x685ec197",
          "transactionHash": "0x7849b8a46d2f33c11a560c72b51ccbe945211db69c0d631f3fa6955703edb6c2",
          "transactionIndex": "0x52",
          "logIndex": "0x14b",
          "removed": false
        }
      ],
      "logsBloom": "0x00000000000000000000000000000000000000000000000000000000000000000800000000000000000000000000000000000000000000000000000000000000000000000000000000000000000000000000000000000000000000000000002000000000000000000000000000000000400000002000000000000000000000000000000000008000000000000000000000000000000000000000000000000000000000008000000000000000000000000000000000000000000000000000000000000000000000000000000000000000000000000000000000000000000000000000000000000000000000000000000000000000000000000000000000000000",
      "type": "0x2",
      "transactionHash": "0x7849b8a46d2f33c11a560c72b51ccbe945211db69c0d631f3fa6955703edb6c2",
      "transactionIndex": "0x52",
      "blockHash": "0xcf7baabf6725cff370fc2a809afd85ad471f5aa5b64f70c2b0eb6e98e21182af",
      "blockNumber": "0x15bda3a",
      "gasUsed": "0x88a8",
      "effectiveGasPrice": "0x6b06d047",
      "from": "0xde5c38699a7057a33524f96e62bb1987c2568816",
      "to": "0x5413ee79fd481e603dab8e595474942e2bd48469",
      "contractAddress": null
    }
  ],
  "libraries": [],
  "pending": [],
  "returns": {},
  "timestamp": 1751040413,
  "chain": 1,
  "commit": "7acaa62"
}