{
  "transactions": [
    {
      "hash": "0x1af3c89a4414adb5177fb45295bec3aeb52202cbc8e04a4b395e7c78a3798ee2",
      "transactionType": "CALL",
      "contractName": null,
      "contractAddress": "0x94a9d9ac8a22534e3faca9f4e7f2e2cf85d5e4c8",
      "function": "approve(address,uint256)",
      "arguments": [
        "0x2345988Ec6c0196821177B90F5e919f18F5324F3",
        "100000000"
      ],
      "transaction": {
        "from": "0xf002435375ab5867617c0c5733793482daa05990",
        "to": "0x94a9d9ac8a22534e3faca9f4e7f2e2cf85d5e4c8",
        "gas": "0xf959",
        "value": "0x0",
        "input": "0x095ea7b30000000000000000000000002345988ec6c0196821177b90f5e919f18f5324f30000000000000000000000000000000000000000000000000000000005f5e100",
        "nonce": "0x0",
        "chainId": "0xaa36a7"
      },
      "additionalContracts": [],
      "isFixedGasLimit": false
    },
    {
      "hash": "0x5dc4236e59e814ca6d21cd8d0b25b7c590ca7e9bd0dfca7b7ef6bac1deaef1ad",
      "transactionType": "CALL",
      "contractName": null,
      "contractAddress": "0x2345988ec6c0196821177b90f5e919f18f5324f3",
      "function": "deposit((address,uint256,address))",
      "arguments": [
        "(0x94a9D9AC8a22534E3FaCa9F4e7F2E2cf85d5E4C8, 100000000, 0x5B0CEd6F9302676f2077a30Dc990b19887AdD89A)"
      ],
      "transaction": {
        "from": "0xf002435375ab5867617c0c5733793482daa05990",
        "to": "0x2345988ec6c0196821177b90f5e919f18f5324f3",
        "gas": "0x3563f",
        "value": "0x0",
        "input": "0x0cf8542f00000000000000000000000094a9d9ac8a22534e3faca9f4e7f2e2cf85d5e4c80000000000000000000000000000000000000000000000000000000005f5e1000000000000000000000000005b0ced6f9302676f2077a30dc990b19887add89a",
        "nonce": "0x1",
        "chainId": "0xaa36a7"
      },
      "additionalContracts": [],
      "isFixedGasLimit": false
    }
  ],
  "receipts": [
    {
      "status": "0x1",
      "cumulativeGasUsed": "0x726c35",
      "logs": [
        {
          "address": "0x94a9d9ac8a22534e3faca9f4e7f2e2cf85d5e4c8",
          "topics": [
            "0x8c5be1e5ebec7d5bd14f71427d1e84f3dd0314c0f7b2291e5b200ac8c7c3b925",
            "0x000000000000000000000000f002435375ab5867617c0c5733793482daa05990",
            "0x0000000000000000000000002345988ec6c0196821177b90f5e919f18f5324f3"
          ],
          "data": "0x0000000000000000000000000000000000000000000000000000000005f5e100",
          "blockHash": "0x3c59c60df55dc5a8061f77371f678d744288906a354a96c2197e06ea2e5b9b2c",
          "blockNumber": "0x5cb72f",
          "transactionHash": "0x1af3c89a4414adb5177fb45295bec3aeb52202cbc8e04a4b395e7c78a3798ee2",
          "transactionIndex": "0x33",
          "logIndex": "0x57",
          "removed": false
        }
      ],
      "logsBloom": "0x00000000000000000000000000000000000000000000000000000000000004000000000000000000000000000000000000000000000008000000000000200000000000000000000000000000000000000000000000000000000008000000000000000000000000000000000000000000000000000000000000000000000000000000000000000400000000000000000000000000000000000000000000000000020000000100000000004000000000000020000000000000000000000040000000000000000000000000000000000000000000000000000000000200000000000010000000000000000000000000000000000000000000000000000000000000",
      "type": "0x2",
      "transactionHash": "0x1af3c89a4414adb5177fb45295bec3aeb52202cbc8e04a4b395e7c78a3798ee2",
      "transactionIndex": "0x33",
      "blockHash": "0x3c59c60df55dc5a8061f77371f678d744288906a354a96c2197e06ea2e5b9b2c",
      "blockNumber": "0x5cb72f",
      "gasUsed": "0xb487",
      "effectiveGasPrice": "0x3ba4598a",
      "from": "0xf002435375ab5867617c0c5733793482daa05990",
      "to": "0x94a9d9ac8a22534e3faca9f4e7f2e2cf85d5e4c8",
      "contractAddress": null
    },
    {
      "status": "0x1",
      "cumulativeGasUsed": "0x74d6ab",
      "logs": [
        {
          "address": "0x94a9d9ac8a22534e3faca9f4e7f2e2cf85d5e4c8",
          "topics": [
            "0xddf252ad1be2c89b69c2b068fc378daa952ba7f163c4a11628f55a4df523b3ef",
            "0x000000000000000000000000f002435375ab5867617c0c5733793482daa05990",
            "0x0000000000000000000000002345988ec6c0196821177b90f5e919f18f5324f3"
          ],
          "data": "0x0000000000000000000000000000000000000000000000000000000005f5e100",
          "blockHash": "0x3c59c60df55dc5a8061f77371f678d744288906a354a96c2197e06ea2e5b9b2c",
          "blockNumber": "0x5cb72f",
          "transactionHash": "0x5dc4236e59e814ca6d21cd8d0b25b7c590ca7e9bd0dfca7b7ef6bac1deaef1ad",
          "transactionIndex": "0x34",
          "logIndex": "0x58",
          "removed": false
        },
        {
          "address": "0x94a9d9ac8a22534e3faca9f4e7f2e2cf85d5e4c8",
          "topics": [
            "0x8c5be1e5ebec7d5bd14f71427d1e84f3dd0314c0f7b2291e5b200ac8c7c3b925",
            "0x000000000000000000000000f002435375ab5867617c0c5733793482daa05990",
            "0x0000000000000000000000002345988ec6c0196821177b90f5e919f18f5324f3"
          ],
          "data": "0x0000000000000000000000000000000000000000000000000000000000000000",
          "blockHash": "0x3c59c60df55dc5a8061f77371f678d744288906a354a96c2197e06ea2e5b9b2c",
          "blockNumber": "0x5cb72f",
          "transactionHash": "0x5dc4236e59e814ca6d21cd8d0b25b7c590ca7e9bd0dfca7b7ef6bac1deaef1ad",
          "transactionIndex": "0x34",
          "logIndex": "0x59",
          "removed": false
        },
        {
          "address": "0x94a9d9ac8a22534e3faca9f4e7f2e2cf85d5e4c8",
          "topics": [
            "0x8c5be1e5ebec7d5bd14f71427d1e84f3dd0314c0f7b2291e5b200ac8c7c3b925",
            "0x0000000000000000000000002345988ec6c0196821177b90f5e919f18f5324f3",
            "0x0000000000000000000000008d1dbc819c4b3fac90e0d8d60d9d746269e6ec18"
          ],
          "data": "0x0000000000000000000000000000000000000000000000000000000005f5e100",
          "blockHash": "0x3c59c60df55dc5a8061f77371f678d744288906a354a96c2197e06ea2e5b9b2c",
          "blockNumber": "0x5cb72f",
          "transactionHash": "0x5dc4236e59e814ca6d21cd8d0b25b7c590ca7e9bd0dfca7b7ef6bac1deaef1ad",
          "transactionIndex": "0x34",
          "logIndex": "0x5a",
          "removed": false
        },
        {
          "address": "0x94a9d9ac8a22534e3faca9f4e7f2e2cf85d5e4c8",
          "topics": [
            "0xddf252ad1be2c89b69c2b068fc378daa952ba7f163c4a11628f55a4df523b3ef",
            "0x0000000000000000000000002345988ec6c0196821177b90f5e919f18f5324f3",
            "0x0000000000000000000000008d1dbc819c4b3fac90e0d8d60d9d746269e6ec18"
          ],
          "data": "0x0000000000000000000000000000000000000000000000000000000005f5e100",
          "blockHash": "0x3c59c60df55dc5a8061f77371f678d744288906a354a96c2197e06ea2e5b9b2c",
          "blockNumber": "0x5cb72f",
          "transactionHash": "0x5dc4236e59e814ca6d21cd8d0b25b7c590ca7e9bd0dfca7b7ef6bac1deaef1ad",
          "transactionIndex": "0x34",
          "logIndex": "0x5b",
          "removed": false
        },
        {
          "address": "0x94a9d9ac8a22534e3faca9f4e7f2e2cf85d5e4c8",
          "topics": [
            "0x8c5be1e5ebec7d5bd14f71427d1e84f3dd0314c0f7b2291e5b200ac8c7c3b925",
            "0x0000000000000000000000002345988ec6c0196821177b90f5e919f18f5324f3",
            "0x0000000000000000000000008d1dbc819c4b3fac90e0d8d60d9d746269e6ec18"
          ],
          "data": "0x0000000000000000000000000000000000000000000000000000000000000000",
          "blockHash": "0x3c59c60df55dc5a8061f77371f678d744288906a354a96c2197e06ea2e5b9b2c",
          "blockNumber": "0x5cb72f",
          "transactionHash": "0x5dc4236e59e814ca6d21cd8d0b25b7c590ca7e9bd0dfca7b7ef6bac1deaef1ad",
          "transactionIndex": "0x34",
          "logIndex": "0x5c",
          "removed": false
        },
        {
          "address": "0x2c8477991456866497b410bdad233ea784534a0e",
          "topics": [
            "0xddf252ad1be2c89b69c2b068fc378daa952ba7f163c4a11628f55a4df523b3ef",
            "0x0000000000000000000000000000000000000000000000000000000000000000",
            "0x0000000000000000000000002345988ec6c0196821177b90f5e919f18f5324f3"
          ],
          "data": "0x0000000000000000000000000000000000000000000000000000000005f5e100",
          "blockHash": "0x3c59c60df55dc5a8061f77371f678d744288906a354a96c2197e06ea2e5b9b2c",
          "blockNumber": "0x5cb72f",
          "transactionHash": "0x5dc4236e59e814ca6d21cd8d0b25b7c590ca7e9bd0dfca7b7ef6bac1deaef1ad",
          "transactionIndex": "0x34",
          "logIndex": "0x5d",
          "removed": false
        },
        {
          "address": "0x2c8477991456866497b410bdad233ea784534a0e",
          "topics": [
            "0x458f5fa412d0f69b08dd84872b0215675cc67bc1d5b6fd93300a1c3878b86196",
            "0x0000000000000000000000008d1dbc819c4b3fac90e0d8d60d9d746269e6ec18",
            "0x0000000000000000000000002345988ec6c0196821177b90f5e919f18f5324f3"
          ],
          "data": "0x0000000000000000000000000000000000000000000000000000000005f5e10000000000000000000000000000000000000000000000000000000000000000000000000000000000000000000000000000000000033b2e3c9fd0803ce8000000",
          "blockHash": "0x3c59c60df55dc5a8061f77371f678d744288906a354a96c2197e06ea2e5b9b2c",
          "blockNumber": "0x5cb72f",
          "transactionHash": "0x5dc4236e59e814ca6d21cd8d0b25b7c590ca7e9bd0dfca7b7ef6bac1deaef1ad",
          "transactionIndex": "0x34",
          "logIndex": "0x5e",
          "removed": false
        },
        {
          "address": "0xdb24a27c628962a02571db55f7ad7f40cd8f7cb9",
          "topics": [
            "0xddf252ad1be2c89b69c2b068fc378daa952ba7f163c4a11628f55a4df523b3ef",
            "0x0000000000000000000000000000000000000000000000000000000000000000",
            "0x0000000000000000000000005b0ced6f9302676f2077a30dc990b19887add89a"
          ],
          "data": "0x0000000000000000000000000000000000000000000000000000000005f5e100",
          "blockHash": "0x3c59c60df55dc5a8061f77371f678d744288906a354a96c2197e06ea2e5b9b2c",
          "blockNumber": "0x5cb72f",
          "transactionHash": "0x5dc4236e59e814ca6d21cd8d0b25b7c590ca7e9bd0dfca7b7ef6bac1deaef1ad",
          "transactionIndex": "0x34",
          "logIndex": "0x5f",
          "removed": false
        },
        {
          "address": "0xdb24a27c628962a02571db55f7ad7f40cd8f7cb9",
          "topics": [
            "0x1dd3ef30dcefc8c588a88fe8610a9b5946656cf752b640cff3e99b7dcfc287ba",
            "0x0000000000000000000000000000000000000000000000000000000000000000",
            "0x0000000000000000000000005b0ced6f9302676f2077a30dc990b19887add89a"
          ],
          "data": "0x0000000000000000000000000000000000000000000000000000000005f5e100",
          "blockHash": "0x3c59c60df55dc5a8061f77371f678d744288906a354a96c2197e06ea2e5b9b2c",
          "blockNumber": "0x5cb72f",
          "transactionHash": "0x5dc4236e59e814ca6d21cd8d0b25b7c590ca7e9bd0dfca7b7ef6bac1deaef1ad",
          "transactionIndex": "0x34",
          "logIndex": "0x60",
          "removed": false
        },
        {
          "address": "0x2345988ec6c0196821177b90f5e919f18f5324f3",
          "topics": [
            "0x5548c837ab068cf56a2c2479df0882a4922fd203edb7517321831d95078c5f62",
            "0x00000000000000000000000094a9d9ac8a22534e3faca9f4e7f2e2cf85d5e4c8",
            "0x0000000000000000000000005b0ced6f9302676f2077a30dc990b19887add89a"
          ],
          "data": "0x0000000000000000000000000000000000000000000000000000000005f5e100",
          "blockHash": "0x3c59c60df55dc5a8061f77371f678d744288906a354a96c2197e06ea2e5b9b2c",
          "blockNumber": "0x5cb72f",
          "transactionHash": "0x5dc4236e59e814ca6d21cd8d0b25b7c590ca7e9bd0dfca7b7ef6bac1deaef1ad",
          "transactionIndex": "0x34",
          "logIndex": "0x61",
          "removed": false
        }
      ],
      "logsBloom": "0x0000000000000000020000000800000000000000000000000200008000000400000000000000000000018000000400000000000000000a0000000000402080008000040000080000200000080000000000000000000000000004080400000000000000000200000000000000000008000000000000000000000000100000000000000000000004000000000000000020000000000000000000000000000000000a0000000100000000004000000000000020000000000000000000000044040002000002000000000000000200800000000000000000020000000200000820000010000000000000000000000000000000000000000000000000000100000000",
      "type": "0x2",
      "transactionHash": "0x5dc4236e59e814ca6d21cd8d0b25b7c590ca7e9bd0dfca7b7ef6bac1deaef1ad",
      "transactionIndex": "0x34",
      "blockHash": "0x3c59c60df55dc5a8061f77371f678d744288906a354a96c2197e06ea2e5b9b2c",
      "blockNumber": "0x5cb72f",
      "gasUsed": "0x26a76",
      "effectiveGasPrice": "0x3ba4598a",
      "from": "0xf002435375ab5867617c0c5733793482daa05990",
      "to": "0x2345988ec6c0196821177b90f5e919f18f5324f3",
      "contractAddress": null
    }
  ],
  "libraries": [],
  "pending": [],
  "returns": {},
  "timestamp": 1717992962,
  "chain": 11155111,
  "commit": "d3f51c9"
}