{
  "transactions": [
    {
      "hash": "0x18cf15fd902a35990dedaeb1323bd47eeb65d7cf43b615e6844c9131a217b3ec",
      "transactionType": "CALL",
      "contractName": null,
      "contractAddress": "0x2345988ec6c0196821177b90f5e919f18f5324f3",
      "function": "sellCreditLimit(((uint256[],int256[],uint256[])))",
      "arguments": [
        "(([86400, 259200], [100000000000000000, 200000000000000000], [0, 0]))"
      ],
      "transaction": {
        "from": "0xf002435375ab5867617c0c5733793482daa05990",
        "to": "0x2345988ec6c0196821177b90f5e919f18f5324f3",
        "gas": "0x48898",
        "value": "0x0",
        "input": "0x189c5b3400000000000000000000000000000000000000000000000000000000000000200000000000000000000000000000000000000000000000000000000000000020000000000000000000000000000000000000000000000000000000000000006000000000000000000000000000000000000000000000000000000000000000c0000000000000000000000000000000000000000000000000000000000000012000000000000000000000000000000000000000000000000000000000000000020000000000000000000000000000000000000000000000000000000000015180000000000000000000000000000000000000000000000000000000000003f4800000000000000000000000000000000000000000000000000000000000000002000000000000000000000000000000000000000000000000016345785d8a000000000000000000000000000000000000000000000000000002c68af0bb140000000000000000000000000000000000000000000000000000000000000000000200000000000000000000000000000000000000000000000000000000000000000000000000000000000000000000000000000000000000000000000000000000",
        "nonce": "0x2",
        "chainId": "0xaa36a7"
      },
      "additionalContracts": [],
      "isFixedGasLimit": false
    }
  ],
  "receipts": [
    {
      "status": "0x1",
      "cumulativeGasUsed": "0x7bb839",
      "logs": [
        {
          "address": "0x2345988ec6c0196821177b90f5e919f18f5324f3",
          "topics": [
            "0x3081b0b0c6425c6bf0813ee473e4734a3a7f31a0fe86424f7f341afebc0be39b"
          ],
          "data": "0x000000000000000000000000000000000000000000000000000000000000006000000000000000000000000000000000000000000000000000000000000000c0000000000000000000000000000000000000000000000000000000000000012000000000000000000000000000000000000000000000000000000000000000020000000000000000000000000000000000000000000000000000000000015180000000000000000000000000000000000000000000000000000000000003f4800000000000000000000000000000000000000000000000000000000000000002000000000000000000000000000000000000000000000000016345785d8a000000000000000000000000000000000000000000000000000002c68af0bb140000000000000000000000000000000000000000000000000000000000000000000200000000000000000000000000000000000000000000000000000000000000000000000000000000000000000000000000000000000000000000000000000000",
          "blockHash": "0x308c0e7514d74d8b4e0af65494686602f2bf9a99dbd8388e4da5a31ef6afce9d",
          "blockNumber": "0x5cb774",
          "transactionHash": "0x18cf15fd902a35990dedaeb1323bd47eeb65d7cf43b615e6844c9131a217b3ec",
          "transactionIndex": "0x32",
          "logIndex": "0x74",
          "removed": false
        }
      ],
      "logsBloom": "0x00000000000000000000000000000010000000000000000000000000000000000000000000000000000080000000000000000000000000000000000000008000000000000000000000000000008000000000000000000000000000000000000000000000000000040000000000000000000000000000000000000000000000000000000000000000000000000000002000000000000000000000000000000000000000000000000000000000000000000000000000000000000000000000000000000000000000000000000000000000000000000000000000000000000000000000000000000000000000000000000000000000000000000000000000000000",
      "type": "0x2",
      "transactionHash": "0x18cf15fd902a35990dedaeb1323bd47eeb65d7cf43b615e6844c9131a217b3ec",
      "transactionIndex": "0x32",
      "blockHash": "0x308c0e7514d74d8b4e0af65494686602f2bf9a99dbd8388e4da5a31ef6afce9d",
      "blockNumber": "0x5cb774",
      "gasUsed": "0x34840",
      "effectiveGasPrice": "0x1bc4230",
      "from": "0xf002435375ab5867617c0c5733793482daa05990",
      "to": "0x2345988ec6c0196821177b90f5e919f18f5324f3",
      "contractAddress": null
    }
  ],
  "libraries": [],
  "pending": [],
  "returns": {},
  "timestamp": 1717993829,
  "chain": 11155111,
  "commit": "d3f51c9"
}