{
  "transactions": [
    {
      "hash": "0xd3366089312749cc9483632ad863ab3700a2110b50422635a2cea7bb5aeeb257",
      "transactionType": "CALL",
      "contractName": null,
      "contractAddress": "0x2345988ec6c0196821177b90f5e919f18f5324f3",
      "function": "sellCreditLimit(((uint256[],int256[],uint256[])))",
      "arguments": [
        "(([86400, 259200], [100000000000000000, 200000000000000000], [0, 0]))"
      ],
      "transaction": {
        "from": "0x1ae60a4910d4c9d09570e36f0e587888ea7ccfb7",
        "to": "0x2345988ec6c0196821177b90f5e919f18f5324f3",
        "gas": "0x48898",
        "value": "0x0",
        "input": "0x189c5b3400000000000000000000000000000000000000000000000000000000000000200000000000000000000000000000000000000000000000000000000000000020000000000000000000000000000000000000000000000000000000000000006000000000000000000000000000000000000000000000000000000000000000c0000000000000000000000000000000000000000000000000000000000000012000000000000000000000000000000000000000000000000000000000000000020000000000000000000000000000000000000000000000000000000000015180000000000000000000000000000000000000000000000000000000000003f4800000000000000000000000000000000000000000000000000000000000000002000000000000000000000000000000000000000000000000016345785d8a000000000000000000000000000000000000000000000000000002c68af0bb140000000000000000000000000000000000000000000000000000000000000000000200000000000000000000000000000000000000000000000000000000000000000000000000000000000000000000000000000000000000000000000000000000",
        "nonce": "0x14",
        "chainId": "0xaa36a7"
      },
      "additionalContracts": [],
      "isFixedGasLimit": false
    }
  ],
  "receipts": [
    {
      "status": "0x1",
      "cumulativeGasUsed": "0x9be5f6",
      "logs": [
        {
          "address": "0x2345988ec6c0196821177b90f5e919f18f5324f3",
          "topics": [
            "0x3081b0b0c6425c6bf0813ee473e4734a3a7f31a0fe86424f7f341afebc0be39b"
          ],
          "data": "0x000000000000000000000000000000000000000000000000000000000000006000000000000000000000000000000000000000000000000000000000000000c0000000000000000000000000000000000000000000000000000000000000012000000000000000000000000000000000000000000000000000000000000000020000000000000000000000000000000000000000000000000000000000015180000000000000000000000000000000000000000000000000000000000003f4800000000000000000000000000000000000000000000000000000000000000002000000000000000000000000000000000000000000000000016345785d8a000000000000000000000000000000000000000000000000000002c68af0bb140000000000000000000000000000000000000000000000000000000000000000000200000000000000000000000000000000000000000000000000000000000000000000000000000000000000000000000000000000000000000000000000000000",
          "blockHash": "0x19358afe620b6724fa8ce6b7f38573ea8160b0cb215a35edac3a0dbd1b7d72ee",
          "blockNumber": "0x5cb7ab",
          "transactionHash": "0xd3366089312749cc9483632ad863ab3700a2110b50422635a2cea7bb5aeeb257",
          "transactionIndex": "0x2d",
          "logIndex": "0x61",
          "removed": false
        }
      ],
      "logsBloom": "0x00000000000000000000000000000010000000000000000000000000000000000000000000000000000080000000000000000000000000000000000000008000000000000000000000000000008000000000000000000000000000000000000000000000000000040000000000000000000000000000000000000000000000000000000000000000000000000000002000000000000000000000000000000000000000000000000000000000000000000000000000000000000000000000000000000000000000000000000000000000000000000000000000000000000000000000000000000000000000000000000000000000000000000000000000000000",
      "type": "0x2",
      "transactionHash": "0xd3366089312749cc9483632ad863ab3700a2110b50422635a2cea7bb5aeeb257",
      "transactionIndex": "0x2d",
      "blockHash": "0x19358afe620b6724fa8ce6b7f38573ea8160b0cb215a35edac3a0dbd1b7d72ee",
      "blockNumber": "0x5cb7ab",
      "gasUsed": "0x34840",
      "effectiveGasPrice": "0x1f545357",
      "from": "0x1ae60a4910d4c9d09570e36f0e587888ea7ccfb7",
      "to": "0x2345988ec6c0196821177b90f5e919f18f5324f3",
      "contractAddress": null
    }
  ],
  "libraries": [],
  "pending": [],
  "returns": {},
  "timestamp": 1717994561,
  "chain": 11155111,
  "commit": "e701b76"
}