{
  "transactions": [
    {
      "hash": "0x378af6bef389b59adaddfa0779b0c543681e2dadcceb578fc9b8cd57a0191108",
      "transactionType": "CALL",
      "contractName": null,
      "contractAddress": "0x2345988ec6c0196821177b90f5e919f18f5324f3",
      "function": "sellCreditLimit(((uint256[],int256[],uint256[])))",
      "arguments": [
        "(([3600, 259200], [100000000000000000, 200000000000000000], [0, 0]))"
      ],
      "transaction": {
        "from": "0x1ae60a4910d4c9d09570e36f0e587888ea7ccfb7",
        "to": "0x2345988ec6c0196821177b90f5e919f18f5324f3",
        "gas": "0x1a80b",
        "value": "0x0",
        "input": "0x189c5b3400000000000000000000000000000000000000000000000000000000000000200000000000000000000000000000000000000000000000000000000000000020000000000000000000000000000000000000000000000000000000000000006000000000000000000000000000000000000000000000000000000000000000c0000000000000000000000000000000000000000000000000000000000000012000000000000000000000000000000000000000000000000000000000000000020000000000000000000000000000000000000000000000000000000000000e10000000000000000000000000000000000000000000000000000000000003f4800000000000000000000000000000000000000000000000000000000000000002000000000000000000000000000000000000000000000000016345785d8a000000000000000000000000000000000000000000000000000002c68af0bb140000000000000000000000000000000000000000000000000000000000000000000200000000000000000000000000000000000000000000000000000000000000000000000000000000000000000000000000000000000000000000000000000000",
        "nonce": "0x19",
        "chainId": "0xaa36a7"
      },
      "additionalContracts": [],
      "isFixedGasLimit": false
    }
  ],
  "receipts": [
    {
      "status": "0x1",
      "cumulativeGasUsed": "0xe80b2e",
      "logs": [
        {
          "address": "0x2345988ec6c0196821177b90f5e919f18f5324f3",
          "topics": [
            "0x3081b0b0c6425c6bf0813ee473e4734a3a7f31a0fe86424f7f341afebc0be39b"
          ],
          "data": "0x000000000000000000000000000000000000000000000000000000000000006000000000000000000000000000000000000000000000000000000000000000c0000000000000000000000000000000000000000000000000000000000000012000000000000000000000000000000000000000000000000000000000000000020000000000000000000000000000000000000000000000000000000000000e10000000000000000000000000000000000000000000000000000000000003f4800000000000000000000000000000000000000000000000000000000000000002000000000000000000000000000000000000000000000000016345785d8a000000000000000000000000000000000000000000000000000002c68af0bb140000000000000000000000000000000000000000000000000000000000000000000200000000000000000000000000000000000000000000000000000000000000000000000000000000000000000000000000000000000000000000000000000000",
          "blockHash": "0x12c679a89b6b62675f51fc2cf271ee50e7c72792f18f8c8bfe1d93caffeb13d0",
          "blockNumber": "0x5cb89d",
          "transactionHash": "0x378af6bef389b59adaddfa0779b0c543681e2dadcceb578fc9b8cd57a0191108",
          "transactionIndex": "0x82",
          "logIndex": "0xd9",
          "removed": false
        }
      ],
      "logsBloom": "0x00000000000000000000000000000010000000000000000000000000000000000000000000000000000080000000000000000000000000000000000000008000000000000000000000000000008000000000000000000000000000000000000000000000000000040000000000000000000000000000000000000000000000000000000000000000000000000000002000000000000000000000000000000000000000000000000000000000000000000000000000000000000000000000000000000000000000000000000000000000000000000000000000000000000000000000000000000000000000000000000000000000000000000000000000000000",
      "type": "0x2",
      "transactionHash": "0x378af6bef389b59adaddfa0779b0c543681e2dadcceb578fc9b8cd57a0191108",
      "transactionIndex": "0x82",
      "blockHash": "0x12c679a89b6b62675f51fc2cf271ee50e7c72792f18f8c8bfe1d93caffeb13d0",
      "blockNumber": "0x5cb89d",
      "gasUsed": "0x13300",
      "effectiveGasPrice": "0x61e770",
      "from": "0x1ae60a4910d4c9d09570e36f0e587888ea7ccfb7",
      "to": "0x2345988ec6c0196821177b90f5e919f18f5324f3",
      "contractAddress": null
    }
  ],
  "libraries": [],
  "pending": [],
  "returns": {},
  "timestamp": 1717997678,
  "chain": 11155111,
  "commit": "e5a9f0a"
}