{
  "transactions": [
    {
      "hash": "0xdc222e326f039fad011d99cf727971116b1446f58ec16de6ee93afa6d2aab57b",
      "transactionType": "CALL",
      "contractName": null,
      "contractAddress": "0xa7ef0584ed1eec3b42d50085a07e47251093ac58",
      "function": "setEarlyRepaymentBuffer(uint256)",
      "arguments": [
        "86400"
      ],
      "transaction": {
        "from": "0xde5c38699a7057a33524f96e62bb1987c2568816",
        "to": "0xa7ef0584ed1eec3b42d50085a07e47251093ac58",
        "gas": "0xbcc1",
        "value": "0x0",
        "input": "0xa97c777b0000000000000000000000000000000000000000000000000000000000015180",
        "nonce": "0x5ee2",
        "chainId": "0x2105"
      },
      "additionalContracts": [],
      "isFixedGasLimit": false
    }
  ],
  "receipts": [
    {
      "status": "0x1",
      "cumulativeGasUsed": "0x1f19034",
      "logs": [
        {
          "address": "0xa7ef0584ed1eec3b42d50085a07e47251093ac58",
          "topics": [
            "0x3072d33e18b59618461ea77e738b0cec6252725eefa85f12cc9b5c6d8baa7bde"
          ],
          "data": "0x0000000000000000000000000000000000000000000000000000000000093a800000000000000000000000000000000000000000000000000000000000015180",
          "blockHash": "0x6fd95934573877550915f373a1ab55b6147b709e01c99f6014fee3dd7bfe6aea",
          "blockNumber": "0x1ea3230",
          "blockTimestamp": "0x685ec143",
          "transactionHash": "0xdc222e326f039fad011d99cf727971116b1446f58ec16de6ee93afa6d2aab57b",
          "transactionIndex": "0x98",
          "logIndex": "0x21b",
          "removed": false
        }
      ],
      "logsBloom": "0x00000000000000000010000000000000000000000000000000000000000000000000000000000000000000000000000000000000200000000000000000000000000000000000000000000000000000000000000000000000000000000000002000000000000000000000000000000000000000002000000000000000000000000000000000000000000000000000000000000000000000000000000000000000000000008000000000000000000000000000000000000000000000000000000002000000000000000000000000000000000000000000000000000000000000000000000000000000000000000000000000000000000000000000000000000000",
      "type": "0x2",
      "transactionHash": "0xdc222e326f039fad011d99cf727971116b1446f58ec16de6ee93afa6d2aab57b",
      "transactionIndex": "0x98",
      "blockHash": "0x6fd95934573877550915f373a1ab55b6147b709e01c99f6014fee3dd7bfe6aea",
      "blockNumber": "0x1ea3230",
      "gasUsed": "0x88a8",
      "effectiveGasPrice": "0x24d9cd",
      "from": "0xde5c38699a7057a33524f96e62bb1987c2568816",
      "to": "0xa7ef0584ed1eec3b42d50085a07e47251093ac58",
      "contractAddress": null,
      "l1BaseFeeScalar": "0x8dd",
      "l1BlobBaseFee": "0x1",
      "l1BlobBaseFeeScalar": "0x101c12",
      "l1Fee": "0x1a2aba211",
      "l1GasPrice": "0x7352d0ea",
      "l1GasUsed": "0x640"
    }
  ],
  "libraries": [],
  "pending": [],
  "returns": {},
  "timestamp": 1751040329,
  "chain": 8453,
  "commit": "7acaa62"
}