{
  "transactions": [
    {
      "hash": "0xd3de01975fc5d5c468aac41f56c87ccecac04e180b8c005127cc07411092069d",
      "transactionType": "CALL",
      "contractName": null,
      "contractAddress": "0x44f269a2a520f18af6215038a8fe1d660ed5986e",
      "function": "buyCreditMarket((address,uint256,uint256,uint256,uint256,uint256,bool))",
      "arguments": [
        "(0x023953117D262271d70Dd5d8C96A8Dd327A7A594, 115792089237316195423570985008687907853269984665640564039457584007913129639935, 50000000, 7200, 1721586761, 101408450704225352, false)"
      ],
      "transaction": {
        "from": "0x5b0ced6f9302676f2077a30dc990b19887add89a",
        "to": "0x44f269a2a520f18af6215038a8fe1d660ed5986e",
        "gas": "0x8bf2d",
        "value": "0x0",
        "input": "0x19a7359b000000000000000000000000023953117d262271d70dd5d8c96a8dd327a7a594ffffffffffffffffffffffffffffffffffffffffffffffffffffffffffffffff0000000000000000000000000000000000000000000000000000000002faf0800000000000000000000000000000000000000000000000000000000000001c2000000000000000000000000000000000000000000000000000000000669d544900000000000000000000000000000000000000000000000001684672d972b4480000000000000000000000000000000000000000000000000000000000000000",
        "nonce": "0x3",
        "chainId": "0x2105"
      },
      "additionalContracts": [],
      "isFixedGasLimit": false
    }
  ],
  "receipts": [
    {
      "status": "0x1",
      "cumulativeGasUsed": "0xd8a86b",
      "logs": [
        {
          "address": "0x44f269a2a520f18af6215038a8fe1d660ed5986e",
          "topics": [
            "0xca34947de24ba1510e856663db085246362b4a5eee75687e6f93d56444820b96",
            "0x000000000000000000000000023953117d262271d70dd5d8c96a8dd327a7a594",
            "0xffffffffffffffffffffffffffffffffffffffffffffffffffffffffffffffff",
            "0x0000000000000000000000000000000000000000000000000000000000001c20"
          ],
          "data": "0x0000000000000000000000000000000000000000000000000000000002faf0800000000000000000000000000000000000000000000000000000000000000000",
          "blockHash": "0x43184e5c393956d3570872ecf5ea73ded7aeeb651bbe21ff788320d40a465338",
          "blockNumber": "0x1097b9e",
          "transactionHash": "0xd3de01975fc5d5c468aac41f56c87ccecac04e180b8c005127cc07411092069d",
          "transactionIndex": "0x5a",
          "logIndex": "0x12a",
          "removed": false
        },
        {
          "address": "0x44f269a2a520f18af6215038a8fe1d660ed5986e",
          "topics": [
            "0x0acb8d1aa087e3e5ac169a594b33e8f991bc9e717cdb4fbe0aa6e0b67c18cdb7",
            "0x0000000000000000000000000000000000000000000000000000000000000000",
            "0x000000000000000000000000023953117d262271d70dd5d8c96a8dd327a7a594",
            "0x0000000000000000000000005b0ced6f9302676f2077a30dc990b19887add89a"
          ],
          "data": "0x0000000000000000000000000000000000000000000000000000000002faf08000000000000000000000000000000000000000000000000000000000669d703f",
          "blockHash": "0x43184e5c393956d3570872ecf5ea73ded7aeeb651bbe21ff788320d40a465338",
          "blockNumber": "0x1097b9e",
          "transactionHash": "0xd3de01975fc5d5c468aac41f56c87ccecac04e180b8c005127cc07411092069d",
          "transactionIndex": "0x5a",
          "logIndex": "0x12b",
          "removed": false
        },
        {
          "address": "0x44f269a2a520f18af6215038a8fe1d660ed5986e",
          "topics": [
            "0x95c0961f606b338f7e6a3c8fd3b2559a53eb7b083ba4b953fed4f41264491913",
            "0x7fffffffffffffffffffffffffffffffffffffffffffffffffffffffffffffff",
            "0x0000000000000000000000005b0ced6f9302676f2077a30dc990b19887add89a",
            "0x0000000000000000000000000000000000000000000000000000000000000000"
          ],
          "data": "0xffffffffffffffffffffffffffffffffffffffffffffffffffffffffffffffff0000000000000000000000000000000000000000000000000000000002faf0800000000000000000000000000000000000000000000000000000000000000001",
          "blockHash": "0x43184e5c393956d3570872ecf5ea73ded7aeeb651bbe21ff788320d40a465338",
          "blockNumber": "0x1097b9e",
          "transactionHash": "0xd3de01975fc5d5c468aac41f56c87ccecac04e180b8c005127cc07411092069d",
          "transactionIndex": "0x5a",
          "logIndex": "0x12c",
          "removed": false
        },
        {
          "address": "0x8bdf7205562cabc6acab2b90b02aef4be2138d7b",
          "topics": [
            "0xddf252ad1be2c89b69c2b068fc378daa952ba7f163c4a11628f55a4df523b3ef",
            "0x0000000000000000000000000000000000000000000000000000000000000000",
            "0x000000000000000000000000023953117d262271d70dd5d8c96a8dd327a7a594"
          ],
          "data": "0x0000000000000000000000000000000000000000000000000000000002faf080",
          "blockHash": "0x43184e5c393956d3570872ecf5ea73ded7aeeb651bbe21ff788320d40a465338",
          "blockNumber": "0x1097b9e",
          "transactionHash": "0xd3de01975fc5d5c468aac41f56c87ccecac04e180b8c005127cc07411092069d",
          "transactionIndex": "0x5a",
          "logIndex": "0x12d",
          "removed": false
        },
        {
          "address": "0x967b76e09bb448b0342683da47a1b8fd765158af",
          "topics": [
            "0xddf252ad1be2c89b69c2b068fc378daa952ba7f163c4a11628f55a4df523b3ef",
            "0x0000000000000000000000005b0ced6f9302676f2077a30dc990b19887add89a",
            "0x0000000000000000000000000000000000000000000000000000000000000000"
          ],
          "data": "0x0000000000000000000000000000000000000000000000000000000002faebc1",
          "blockHash": "0x43184e5c393956d3570872ecf5ea73ded7aeeb651bbe21ff788320d40a465338",
          "blockNumber": "0x1097b9e",
          "transactionHash": "0xd3de01975fc5d5c468aac41f56c87ccecac04e180b8c005127cc07411092069d",
          "transactionIndex": "0x5a",
          "logIndex": "0x12e",
          "removed": false
        },
        {
          "address": "0x967b76e09bb448b0342683da47a1b8fd765158af",
          "topics": [
            "0xddf252ad1be2c89b69c2b068fc378daa952ba7f163c4a11628f55a4df523b3ef",
            "0x0000000000000000000000000000000000000000000000000000000000000000",
            "0x000000000000000000000000023953117d262271d70dd5d8c96a8dd327a7a594"
          ],
          "data": "0x0000000000000000000000000000000000000000000000000000000002faebc1",
          "blockHash": "0x43184e5c393956d3570872ecf5ea73ded7aeeb651bbe21ff788320d40a465338",
          "blockNumber": "0x1097b9e",
          "transactionHash": "0xd3de01975fc5d5c468aac41f56c87ccecac04e180b8c005127cc07411092069d",
          "transactionIndex": "0x5a",
          "logIndex": "0x12f",
          "removed": false
        },
        {
          "address": "0x967b76e09bb448b0342683da47a1b8fd765158af",
          "topics": [
            "0x1dd3ef30dcefc8c588a88fe8610a9b5946656cf752b640cff3e99b7dcfc287ba",
            "0x0000000000000000000000005b0ced6f9302676f2077a30dc990b19887add89a",
            "0x000000000000000000000000023953117d262271d70dd5d8c96a8dd327a7a594"
          ],
          "data": "0x0000000000000000000000000000000000000000000000000000000002faebc1",
          "blockHash": "0x43184e5c393956d3570872ecf5ea73ded7aeeb651bbe21ff788320d40a465338",
          "blockNumber": "0x1097b9e",
          "transactionHash": "0xd3de01975fc5d5c468aac41f56c87ccecac04e180b8c005127cc07411092069d",
          "transactionIndex": "0x5a",
          "logIndex": "0x130",
          "removed": false
        },
        {
          "address": "0x967b76e09bb448b0342683da47a1b8fd765158af",
          "topics": [
            "0xddf252ad1be2c89b69c2b068fc378daa952ba7f163c4a11628f55a4df523b3ef",
            "0x0000000000000000000000005b0ced6f9302676f2077a30dc990b19887add89a",
            "0x0000000000000000000000000000000000000000000000000000000000000000"
          ],
          "data": "0x000000000000000000000000000000000000000000000000000000000000003a",
          "blockHash": "0x43184e5c393956d3570872ecf5ea73ded7aeeb651bbe21ff788320d40a465338",
          "blockNumber": "0x1097b9e",
          "transactionHash": "0xd3de01975fc5d5c468aac41f56c87ccecac04e180b8c005127cc07411092069d",
          "transactionIndex": "0x5a",
          "logIndex": "0x131",
          "removed": false
        },
        {
          "address": "0x967b76e09bb448b0342683da47a1b8fd765158af",
          "topics": [
            "0xddf252ad1be2c89b69c2b068fc378daa952ba7f163c4a11628f55a4df523b3ef",
            "0x0000000000000000000000000000000000000000000000000000000000000000",
            "0x000000000000000000000000023953117d262271d70dd5d8c96a8dd327a7a594"
          ],
          "data": "0x000000000000000000000000000000000000000000000000000000000000003a",
          "blockHash": "0x43184e5c393956d3570872ecf5ea73ded7aeeb651bbe21ff788320d40a465338",
          "blockNumber": "0x1097b9e",
          "transactionHash": "0xd3de01975fc5d5c468aac41f56c87ccecac04e180b8c005127cc07411092069d",
          "transactionIndex": "0x5a",
          "logIndex": "0x132",
          "removed": false
        },
        {
          "address": "0x967b76e09bb448b0342683da47a1b8fd765158af",
          "topics": [
            "0x1dd3ef30dcefc8c588a88fe8610a9b5946656cf752b640cff3e99b7dcfc287ba",
            "0x0000000000000000000000005b0ced6f9302676f2077a30dc990b19887add89a",
            "0x000000000000000000000000023953117d262271d70dd5d8c96a8dd327a7a594"
          ],
          "data": "0x000000000000000000000000000000000000000000000000000000000000003a",
          "blockHash": "0x43184e5c393956d3570872ecf5ea73ded7aeeb651bbe21ff788320d40a465338",
          "blockNumber": "0x1097b9e",
          "transactionHash": "0xd3de01975fc5d5c468aac41f56c87ccecac04e180b8c005127cc07411092069d",
          "transactionIndex": "0x5a",
          "logIndex": "0x133",
          "removed": false
        }
      ],
      "logsBloom": "0x00000000020000000400000008000000000000000000000000000100000000000000100000000000000000000000000000000000000000000000000000000000800004000000000000000008000000000000000000080400000c0000044000000000800002000000800000000008080000000000000000000000001010000020000000010000000000000000000000000000000000000000000000000000000008000000000a010000000000000000800000000000000000000000000000000000000002800000200000000010000000000000000000080000000000000820000000000010000000000000000000000000000210200000101000000100000000",
      "type": "0x2",
      "transactionHash": "0xd3de01975fc5d5c468aac41f56c87ccecac04e180b8c005127cc07411092069d",
      "transactionIndex": "0x5a",
      "blockHash": "0x43184e5c393956d3570872ecf5ea73ded7aeeb651bbe21ff788320d40a465338",
      "blockNumber": "0x1097b9e",
      "gasUsed": "0x65520",
      "effectiveGasPrice": "0x1ff719c",
      "from": "0x5b0ced6f9302676f2077a30dc990b19887add89a",
      "to": "0x44f269a2a520f18af6215038a8fe1d660ed5986e",
      "contractAddress": null,
      "l1BaseFeeScalar": "0x8dd",
      "l1BlobBaseFee": "0x1",
      "l1BlobBaseFeeScalar": "0x101c12",
      "l1Fee": "0x3136263070",
      "l1GasPrice": "0xaa79e3b9a",
      "l1GasUsed": "0x7f3"
    }
  ],
  "libraries": [],
  "pending": [],
  "returns": {},
  "timestamp": 1721586725,
  "chain": 8453,
  "commit": "ef5bff9"
}