{
  "transactions": [
    {
      "hash": "0x96b4319359042e82dca8d68e82aa6583ce7d217a440194923a2e2b64262b93f6",
      "transactionType": "CALL",
      "contractName": null,
      "contractAddress": "0x44f269a2a520f18af6215038a8fe1d660ed5986e",
      "function": "sellCreditLimit((uint256,(uint256[],int256[],uint256[])))",
      "arguments": [
        "(99999999999999, ([3600, 259200], [100000000000000000, 200000000000000000], [0, 0]))"
      ],
      "transaction": {
        "from": "0x023953117d262271d70dd5d8c96a8dd327a7a594",
        "to": "0x44f269a2a520f18af6215038a8fe1d660ed5986e",
        "gas": "0x5444b",
        "value": "0x0",
        "input": "0xccd8d4d1000000000000000000000000000000000000000000000000000000000000002000000000000000000000000000000000000000000000000000005af3107a3fff0000000000000000000000000000000000000000000000000000000000000040000000000000000000000000000000000000000000000000000000000000006000000000000000000000000000000000000000000000000000000000000000c0000000000000000000000000000000000000000000000000000000000000012000000000000000000000000000000000000000000000000000000000000000020000000000000000000000000000000000000000000000000000000000000e10000000000000000000000000000000000000000000000000000000000003f4800000000000000000000000000000000000000000000000000000000000000002000000000000000000000000000000000000000000000000016345785d8a000000000000000000000000000000000000000000000000000002c68af0bb140000000000000000000000000000000000000000000000000000000000000000000200000000000000000000000000000000000000000000000000000000000000000000000000000000000000000000000000000000000000000000000000000000",
        "nonce": "0x2f",
        "chainId": "0x2105"
      },
      "additionalContracts": [],
      "isFixedGasLimit": false
    }
  ],
  "receipts": [
    {
      "status": "0x1",
      "cumulativeGasUsed": "0xe26814",
      "logs": [
        {
          "address": "0x44f269a2a520f18af6215038a8fe1d660ed5986e",
          "topics": [
            "0xbd9051c5eec86a3d4cd9dfb36219ffe08c560f2bef817d86833a5716d7e00cc9",
            "0x00000000000000000000000000000000000000000000000000005af3107a3fff"
          ],
          "data": "0x000000000000000000000000000000000000000000000000000000000000006000000000000000000000000000000000000000000000000000000000000000c0000000000000000000000000000000000000000000000000000000000000012000000000000000000000000000000000000000000000000000000000000000020000000000000000000000000000000000000000000000000000000000000e10000000000000000000000000000000000000000000000000000000000003f4800000000000000000000000000000000000000000000000000000000000000002000000000000000000000000000000000000000000000000016345785d8a000000000000000000000000000000000000000000000000000002c68af0bb140000000000000000000000000000000000000000000000000000000000000000000200000000000000000000000000000000000000000000000000000000000000000000000000000000000000000000000000000000000000000000000000000000",
          "blockHash": "0x31d59e1901b48a598909668da0561c674d34be80b636ce69e27d42f3bc61da39",
          "blockNumber": "0x1097b44",
          "transactionHash": "0x96b4319359042e82dca8d68e82aa6583ce7d217a440194923a2e2b64262b93f6",
          "transactionIndex": "0x4e",
          "logIndex": "0xfd",
          "removed": false
        }
      ],
      "logsBloom": "0x00000000000000000000000000000000000000000000200000000000000000000000100000000000000000000000000000000000000000000000000000000080000000000000000000000000000000000000000000000000000000000000000000000000000000000000000000000000000000000000000000000000000000000000000100001000000000000000000000002000000000000000004000000000000000000000000000000000000000000000000000000000000000000000000000000000000000000000000000000000000000000000000000000000000000000000000010000000000000000000000000001000000000000000000000000000",
      "type": "0x2",
      "transactionHash": "0x96b4319359042e82dca8d68e82aa6583ce7d217a440194923a2e2b64262b93f6",
      "transactionIndex": "0x4e",
      "blockHash": "0x31d59e1901b48a598909668da0561c674d34be80b636ce69e27d42f3bc61da39",
      "blockNumber": "0x1097b44",
      "gasUsed": "0x399e9",
      "effectiveGasPrice": "0x1fa3d28",
      "from": "0x023953117d262271d70dd5d8c96a8dd327a7a594",
      "to": "0x44f269a2a520f18af6215038a8fe1d660ed5986e",
      "contractAddress": null,
      "l1BaseFeeScalar": "0x8dd",
      "l1BlobBaseFee": "0x1",
      "l1BlobBaseFeeScalar": "0x101c12",
      "l1Fee": "0x2ff61a8b12",
      "l1GasPrice": "0x8f8035bec",
      "l1GasUsed": "0x934"
    }
  ],
  "libraries": [],
  "pending": [],
  "returns": {},
  "timestamp": 1721586544,
  "chain": 8453,
  "commit": "ef5bff9"
}