{
  "transactions": [
    {
      "hash": "0x5a24e2b74a170e1cc5a60ef20d8bda7cd7d745024e4f559aa9694cc85fd02589",
      "transactionType": "CALL",
      "contractName": null,
      "contractAddress": "0x44f269a2a520f18af6215038a8fe1d660ed5986e",
      "function": "buyCreditLimit((uint256,(uint256[],int256[],uint256[])))",
      "arguments": [
        "(1724178477, ([86400, 259200], [100000000000000000, 200000000000000000], [1000000000000000000, 1000000000000000000]))"
      ],
      "transaction": {
        "from": "0x5b0ced6f9302676f2077a30dc990b19887add89a",
        "to": "0x44f269a2a520f18af6215038a8fe1d660ed5986e",
        "gas": "0x62843",
        "value": "0x0",
        "input": "0x3746f85800000000000000000000000000000000000000000000000000000000000000200000000000000000000000000000000000000000000000000000000066c4e02d0000000000000000000000000000000000000000000000000000000000000040000000000000000000000000000000000000000000000000000000000000006000000000000000000000000000000000000000000000000000000000000000c0000000000000000000000000000000000000000000000000000000000000012000000000000000000000000000000000000000000000000000000000000000020000000000000000000000000000000000000000000000000000000000015180000000000000000000000000000000000000000000000000000000000003f4800000000000000000000000000000000000000000000000000000000000000002000000000000000000000000000000000000000000000000016345785d8a000000000000000000000000000000000000000000000000000002c68af0bb14000000000000000000000000000000000000000000000000000000000000000000020000000000000000000000000000000000000000000000000de0b6b3a76400000000000000000000000000000000000000000000000000000de0b6b3a7640000",
        "nonce": "0x2",
        "chainId": "0x2105"
      },
      "additionalContracts": [],
      "isFixedGasLimit": false
    }
  ],
  "receipts": [
    {
      "status": "0x1",
      "cumulativeGasUsed": "0x8ab3ec",
      "logs": [
        {
          "address": "0x44f269a2a520f18af6215038a8fe1d660ed5986e",
          "topics": [
            "0xc8871d6792330ffe03599518801289027505937d3a59e47d58e8138932305ecb",
            "0x0000000000000000000000000000000000000000000000000000000066c4e02d"
          ],
          "data": "0x000000000000000000000000000000000000000000000000000000000000006000000000000000000000000000000000000000000000000000000000000000c0000000000000000000000000000000000000000000000000000000000000012000000000000000000000000000000000000000000000000000000000000000020000000000000000000000000000000000000000000000000000000000015180000000000000000000000000000000000000000000000000000000000003f4800000000000000000000000000000000000000000000000000000000000000002000000000000000000000000000000000000000000000000016345785d8a000000000000000000000000000000000000000000000000000002c68af0bb14000000000000000000000000000000000000000000000000000000000000000000020000000000000000000000000000000000000000000000000de0b6b3a76400000000000000000000000000000000000000000000000000000de0b6b3a7640000",
          "blockHash": "0xde6681cb3b13f79caf9c9a5a4df87c0485650e9112e92b4728a4dab9011c4794",
          "blockNumber": "0x1097b29",
          "transactionHash": "0x5a24e2b74a170e1cc5a60ef20d8bda7cd7d745024e4f559aa9694cc85fd02589",
          "transactionIndex": "0x35",
          "logIndex": "0x127",
          "removed": false
        }
      ],
      "logsBloom": "0x00000000000000000000000000000000000000000000000000000000000000400000100000000000000000000000000000000000000000000000000000000000000000000000000000000000000000000000000000000000000000000000000000000000000000000000000000000000000000000000000000000000000000000000000100000000000020000000000000040000000000000000000000000000000000000000000000000000000000000000000000000010000000000000000000100000000000000000000000000000000000000000000000000000000000000000000010000000000000000000002000000000000000000000000000000000",
      "type": "0x2",
      "transactionHash": "0x5a24e2b74a170e1cc5a60ef20d8bda7cd7d745024e4f559aa9694cc85fd02589",
      "transactionIndex": "0x35",
      "blockHash": "0xde6681cb3b13f79caf9c9a5a4df87c0485650e9112e92b4728a4dab9011c4794",
      "blockNumber": "0x1097b29",
      "gasUsed": "0x435ca",
      "effectiveGasPrice": "0x200520d",
      "from": "0x5b0ced6f9302676f2077a30dc990b19887add89a",
      "to": "0x44f269a2a520f18af6215038a8fe1d660ed5986e",
      "contractAddress": null,
      "l1BaseFeeScalar": "0x8dd",
      "l1BlobBaseFee": "0x1",
      "l1BlobBaseFeeScalar": "0x101c12",
      "l1Fee": "0x2efd68bdc0",
      "l1GasPrice": "0x8453f4ff8",
      "l1GasUsed": "0x9c8"
    }
  ],
  "libraries": [],
  "pending": [],
  "returns": {},
  "timestamp": 1721586491,
  "chain": 8453,
  "commit": "ef5bff9"
}