{
  "transactions": [
    {
      "hash": "0x9a38373aac1c0bb6bb3ce33e5566c06975031c6272738e9cbfb3f053ea059af2",
      "transactionType": "CALL",
      "contractName": null,
      "contractAddress": "0x2345988ec6c0196821177b90f5e919f18f5324f3",
      "function": "buyCreditMarket((address,uint256,uint256,uint256,uint256,uint256,bool))",
      "arguments": [
        "(0x1AE60A4910D4C9D09570e36F0E587888eA7cCFB7, 115792089237316195423570985008687907853269984665640564039457584007913129639935, 50000000, 172800, 1717995840, 150000000000000000, false)"
      ],
      "transaction": {
        "from": "0x1ae60a4910d4c9d09570e36f0e587888ea7ccfb7",
        "to": "0x2345988ec6c0196821177b90f5e919f18f5324f3",
        "gas": "0x761eb",
        "value": "0x0",
        "input": "0x19a7359b0000000000000000000000001ae60a4910d4c9d09570e36f0e587888ea7ccfb7ffffffffffffffffffffffffffffffffffffffffffffffffffffffffffffffff0000000000000000000000000000000000000000000000000000000002faf080000000000000000000000000000000000000000000000000000000000002a30000000000000000000000000000000000000000000000000000000000666689400000000000000000000000000000000000000000000000000214e8348c4f00000000000000000000000000000000000000000000000000000000000000000000",
        "nonce": "0x17",
        "chainId": "0xaa36a7"
      },
      "additionalContracts": [],
      "isFixedGasLimit": false
    }
  ],
  "receipts": [
    {
      "status": "0x1",
      "cumulativeGasUsed": "0x9bd611",
      "logs": [
        {
          "address": "0x2345988ec6c0196821177b90f5e919f18f5324f3",
          "topics": [
            "0xca34947de24ba1510e856663db085246362b4a5eee75687e6f93d56444820b96",
            "0x0000000000000000000000001ae60a4910d4c9d09570e36f0e587888ea7ccfb7",
            "0xffffffffffffffffffffffffffffffffffffffffffffffffffffffffffffffff",
            "0x000000000000000000000000000000000000000000000000000000000002a300"
          ],
          "data": "0x0000000000000000000000000000000000000000000000000000000002faf0800000000000000000000000000000000000000000000000000000000000000000",
          "blockHash": "0xf4fce8768d20745413e8bcabc6c1bdf5d041c3353d3b5bb7a923af1b72dcc14b",
          "blockNumber": "0x5cb80d",
          "transactionHash": "0x9a38373aac1c0bb6bb3ce33e5566c06975031c6272738e9cbfb3f053ea059af2",
          "transactionIndex": "0x3a",
          "logIndex": "0x85",
          "removed": false
        },
        {
          "address": "0x2345988ec6c0196821177b90f5e919f18f5324f3",
          "topics": [
            "0x0acb8d1aa087e3e5ac169a594b33e8f991bc9e717cdb4fbe0aa6e0b67c18cdb7",
            "0x0000000000000000000000000000000000000000000000000000000000000002",
            "0x0000000000000000000000001ae60a4910d4c9d09570e36f0e587888ea7ccfb7",
            "0x0000000000000000000000001ae60a4910d4c9d09570e36f0e587888ea7ccfb7"
          ],
          "data": "0x0000000000000000000000000000000000000000000000000000000002faf0800000000000000000000000000000000000000000000000000000000066692c1c",
          "blockHash": "0xf4fce8768d20745413e8bcabc6c1bdf5d041c3353d3b5bb7a923af1b72dcc14b",
          "blockNumber": "0x5cb80d",
          "transactionHash": "0x9a38373aac1c0bb6bb3ce33e5566c06975031c6272738e9cbfb3f053ea059af2",
          "transactionIndex": "0x3a",
          "logIndex": "0x86",
          "removed": false
        },
        {
          "address": "0x2345988ec6c0196821177b90f5e919f18f5324f3",
          "topics": [
            "0x3096250ea18916fdc02f22b6033201bd90334bc61881668a4c929518325f78b7",
            "0x8000000000000000000000000000000000000000000000000000000000000001",
            "0x0000000000000000000000001ae60a4910d4c9d09570e36f0e587888ea7ccfb7",
            "0x0000000000000000000000000000000000000000000000000000000000000002"
          ],
          "data": "0xffffffffffffffffffffffffffffffffffffffffffffffffffffffffffffffff0000000000000000000000000000000000000000000000000000000002faf080",
          "blockHash": "0xf4fce8768d20745413e8bcabc6c1bdf5d041c3353d3b5bb7a923af1b72dcc14b",
          "blockNumber": "0x5cb80d",
          "transactionHash": "0x9a38373aac1c0bb6bb3ce33e5566c06975031c6272738e9cbfb3f053ea059af2",
          "transactionIndex": "0x3a",
          "logIndex": "0x87",
          "removed": false
        },
        {
          "address": "0xdce05f077be7309eebed31aef3cb0434e1e5d455",
          "topics": [
            "0xddf252ad1be2c89b69c2b068fc378daa952ba7f163c4a11628f55a4df523b3ef",
            "0x0000000000000000000000000000000000000000000000000000000000000000",
            "0x0000000000000000000000001ae60a4910d4c9d09570e36f0e587888ea7ccfb7"
          ],
          "data": "0x0000000000000000000000000000000000000000000000000000000002faf080",
          "blockHash": "0xf4fce8768d20745413e8bcabc6c1bdf5d041c3353d3b5bb7a923af1b72dcc14b",
          "blockNumber": "0x5cb80d",
          "transactionHash": "0x9a38373aac1c0bb6bb3ce33e5566c06975031c6272738e9cbfb3f053ea059af2",
          "transactionIndex": "0x3a",
          "logIndex": "0x88",
          "removed": false
        },
        {
          "address": "0xdb24a27c628962a02571db55f7ad7f40cd8f7cb9",
          "topics": [
            "0xddf252ad1be2c89b69c2b068fc378daa952ba7f163c4a11628f55a4df523b3ef",
            "0x0000000000000000000000001ae60a4910d4c9d09570e36f0e587888ea7ccfb7",
            "0x0000000000000000000000000000000000000000000000000000000000000000"
          ],
          "data": "0x0000000000000000000000000000000000000000000000000000000002fa4ac1",
          "blockHash": "0xf4fce8768d20745413e8bcabc6c1bdf5d041c3353d3b5bb7a923af1b72dcc14b",
          "blockNumber": "0x5cb80d",
          "transactionHash": "0x9a38373aac1c0bb6bb3ce33e5566c06975031c6272738e9cbfb3f053ea059af2",
          "transactionIndex": "0x3a",
          "logIndex": "0x89",
          "removed": false
        },
        {
          "address": "0xdb24a27c628962a02571db55f7ad7f40cd8f7cb9",
          "topics": [
            "0xddf252ad1be2c89b69c2b068fc378daa952ba7f163c4a11628f55a4df523b3ef",
            "0x0000000000000000000000000000000000000000000000000000000000000000",
            "0x0000000000000000000000001ae60a4910d4c9d09570e36f0e587888ea7ccfb7"
          ],
          "data": "0x0000000000000000000000000000000000000000000000000000000002fa4ac1",
          "blockHash": "0xf4fce8768d20745413e8bcabc6c1bdf5d041c3353d3b5bb7a923af1b72dcc14b",
          "blockNumber": "0x5cb80d",
          "transactionHash": "0x9a38373aac1c0bb6bb3ce33e5566c06975031c6272738e9cbfb3f053ea059af2",
          "transactionIndex": "0x3a",
          "logIndex": "0x8a",
          "removed": false
        },
        {
          "address": "0xdb24a27c628962a02571db55f7ad7f40cd8f7cb9",
          "topics": [
            "0x1dd3ef30dcefc8c588a88fe8610a9b5946656cf752b640cff3e99b7dcfc287ba",
            "0x0000000000000000000000001ae60a4910d4c9d09570e36f0e587888ea7ccfb7",
            "0x0000000000000000000000001ae60a4910d4c9d09570e36f0e587888ea7ccfb7"
          ],
          "data": "0x0000000000000000000000000000000000000000000000000000000002fa4ac1",
          "blockHash": "0xf4fce8768d20745413e8bcabc6c1bdf5d041c3353d3b5bb7a923af1b72dcc14b",
          "blockNumber": "0x5cb80d",
          "transactionHash": "0x9a38373aac1c0bb6bb3ce33e5566c06975031c6272738e9cbfb3f053ea059af2",
          "transactionIndex": "0x3a",
          "logIndex": "0x8b",
          "removed": false
        },
        {
          "address": "0xdb24a27c628962a02571db55f7ad7f40cd8f7cb9",
          "topics": [
            "0xddf252ad1be2c89b69c2b068fc378daa952ba7f163c4a11628f55a4df523b3ef",
            "0x0000000000000000000000001ae60a4910d4c9d09570e36f0e587888ea7ccfb7",
            "0x0000000000000000000000000000000000000000000000000000000000000000"
          ],
          "data": "0x0000000000000000000000000000000000000000000000000000000000000559",
          "blockHash": "0xf4fce8768d20745413e8bcabc6c1bdf5d041c3353d3b5bb7a923af1b72dcc14b",
          "blockNumber": "0x5cb80d",
          "transactionHash": "0x9a38373aac1c0bb6bb3ce33e5566c06975031c6272738e9cbfb3f053ea059af2",
          "transactionIndex": "0x3a",
          "logIndex": "0x8c",
          "removed": false
        },
        {
          "address": "0xdb24a27c628962a02571db55f7ad7f40cd8f7cb9",
          "topics": [
            "0xddf252ad1be2c89b69c2b068fc378daa952ba7f163c4a11628f55a4df523b3ef",
            "0x0000000000000000000000000000000000000000000000000000000000000000",
            "0x000000000000000000000000023953117d262271d70dd5d8c96a8dd327a7a594"
          ],
          "data": "0x0000000000000000000000000000000000000000000000000000000000000559",
          "blockHash": "0xf4fce8768d20745413e8bcabc6c1bdf5d041c3353d3b5bb7a923af1b72dcc14b",
          "blockNumber": "0x5cb80d",
          "transactionHash": "0x9a38373aac1c0bb6bb3ce33e5566c06975031c6272738e9cbfb3f053ea059af2",
          "transactionIndex": "0x3a",
          "logIndex": "0x8d",
          "removed": false
        },
        {
          "address": "0xdb24a27c628962a02571db55f7ad7f40cd8f7cb9",
          "topics": [
            "0x1dd3ef30dcefc8c588a88fe8610a9b5946656cf752b640cff3e99b7dcfc287ba",
            "0x0000000000000000000000001ae60a4910d4c9d09570e36f0e587888ea7ccfb7",
            "0x000000000000000000000000023953117d262271d70dd5d8c96a8dd327a7a594"
          ],
          "data": "0x0000000000000000000000000000000000000000000000000000000000000559",
          "blockHash": "0xf4fce8768d20745413e8bcabc6c1bdf5d041c3353d3b5bb7a923af1b72dcc14b",
          "blockNumber": "0x5cb80d",
          "transactionHash": "0x9a38373aac1c0bb6bb3ce33e5566c06975031c6272738e9cbfb3f053ea059af2",
          "transactionIndex": "0x3a",
          "logIndex": "0x8e",
          "removed": false
        }
      ],
      "logsBloom": "0x04200000000000000000000000000000000000000000000002000000000000000080000000000000010080000000000000000000000000004000001000008000800004000000000000000008000000000000000000080400000000000400000800400004020000008020000000080800000000800000000000000010100000200000000000000000000000000400002000000000000000000000000000000000000000000000000000000100000000000000000000000000000000000204000000000002800000200000000000800000000000400000000000000000000820000000000000000000000000000000001000000010008000101000000100000000",
      "type": "0x2",
      "transactionHash": "0x9a38373aac1c0bb6bb3ce33e5566c06975031c6272738e9cbfb3f053ea059af2",
      "transactionIndex": "0x3a",
      "blockHash": "0xf4fce8768d20745413e8bcabc6c1bdf5d041c3353d3b5bb7a923af1b72dcc14b",
      "blockNumber": "0x5cb80d",
      "gasUsed": "0x55845",
      "effectiveGasPrice": "0x1e2c3f61",
      "from": "0x1ae60a4910d4c9d09570e36f0e587888ea7ccfb7",
      "to": "0x2345988ec6c0196821177b90f5e919f18f5324f3",
      "contractAddress": null
    }
  ],
  "libraries": [],
  "pending": [],
  "returns": {},
  "timestamp": 1717995805,
  "chain": 11155111,
  "commit": "e701b76"
}